{
  "_format": "hh-sol-artifact-1",
  "contractName": "Expense",
  "sourceName": "contracts/Expense.sol",
  "abi": [
    {
      "inputs": [],
      "stateMutability": "nonpayable",
      "type": "constructor"
    },
    {
      "anonymous": false,
      "inputs": [
        {
          "indexed": true,
          "internalType": "address",
          "name": "owner",
          "type": "address"
        },
        {
          "indexed": true,
          "internalType": "address",
          "name": "spender",
          "type": "address"
        },
        {
          "indexed": false,
          "internalType": "uint256",
          "name": "value",
          "type": "uint256"
        }
      ],
      "name": "Approval",
      "type": "event"
    },
    {
      "anonymous": false,
      "inputs": [
        {
          "indexed": true,
          "internalType": "address",
          "name": "delegator",
          "type": "address"
        },
        {
          "indexed": true,
          "internalType": "address",
          "name": "fromDelegate",
          "type": "address"
        },
        {
          "indexed": true,
          "internalType": "address",
          "name": "toDelegate",
          "type": "address"
        }
      ],
      "name": "DelegateChanged",
      "type": "event"
    },
    {
      "anonymous": false,
      "inputs": [
        {
          "indexed": true,
          "internalType": "address",
          "name": "delegate",
          "type": "address"
        },
        {
          "indexed": false,
          "internalType": "uint256",
          "name": "previousBalance",
          "type": "uint256"
        },
        {
          "indexed": false,
          "internalType": "uint256",
          "name": "newBalance",
          "type": "uint256"
        }
      ],
      "name": "DelegateVotesChanged",
      "type": "event"
    },
    {
      "anonymous": false,
      "inputs": [
        {
          "indexed": true,
          "internalType": "address",
          "name": "previousOwner",
          "type": "address"
        },
        {
          "indexed": true,
          "internalType": "address",
          "name": "newOwner",
          "type": "address"
        }
      ],
      "name": "OwnershipTransferred",
      "type": "event"
    },
    {
      "anonymous": false,
      "inputs": [
        {
          "indexed": false,
          "internalType": "address",
          "name": "account",
          "type": "address"
        }
      ],
      "name": "Paused",
      "type": "event"
    },
    {
      "anonymous": false,
      "inputs": [
        {
          "indexed": true,
          "internalType": "address",
          "name": "from",
          "type": "address"
        },
        {
          "indexed": true,
          "internalType": "address",
          "name": "to",
          "type": "address"
        },
        {
          "indexed": false,
          "internalType": "uint256",
          "name": "value",
          "type": "uint256"
        }
      ],
      "name": "Transfer",
      "type": "event"
    },
    {
      "anonymous": false,
      "inputs": [
        {
          "indexed": false,
          "internalType": "address",
          "name": "account",
          "type": "address"
        }
      ],
      "name": "Unpaused",
      "type": "event"
    },
    {
      "inputs": [],
      "name": "DOMAIN_SEPARATOR",
      "outputs": [
        {
          "internalType": "bytes32",
          "name": "",
          "type": "bytes32"
        }
      ],
      "stateMutability": "view",
      "type": "function"
    },
    {
      "inputs": [
        {
          "internalType": "address",
          "name": "owner",
          "type": "address"
        },
        {
          "internalType": "address",
          "name": "spender",
          "type": "address"
        }
      ],
      "name": "allowance",
      "outputs": [
        {
          "internalType": "uint256",
          "name": "",
          "type": "uint256"
        }
      ],
      "stateMutability": "view",
      "type": "function"
    },
    {
      "inputs": [
        {
          "internalType": "address",
          "name": "spender",
          "type": "address"
        },
        {
          "internalType": "uint256",
          "name": "amount",
          "type": "uint256"
        }
      ],
      "name": "approve",
      "outputs": [
        {
          "internalType": "bool",
          "name": "",
          "type": "bool"
        }
      ],
      "stateMutability": "nonpayable",
      "type": "function"
    },
    {
      "inputs": [
        {
          "internalType": "address",
          "name": "account",
          "type": "address"
        }
      ],
      "name": "balanceOf",
      "outputs": [
        {
          "internalType": "uint256",
          "name": "",
          "type": "uint256"
        }
      ],
      "stateMutability": "view",
      "type": "function"
    },
    {
      "inputs": [
        {
          "internalType": "uint256",
          "name": "amount",
          "type": "uint256"
        }
      ],
      "name": "burn",
      "outputs": [],
      "stateMutability": "nonpayable",
      "type": "function"
    },
    {
      "inputs": [
        {
          "internalType": "address",
          "name": "account",
          "type": "address"
        },
        {
          "internalType": "uint256",
          "name": "amount",
          "type": "uint256"
        }
      ],
      "name": "burnFrom",
      "outputs": [],
      "stateMutability": "nonpayable",
      "type": "function"
    },
    {
      "inputs": [
        {
          "internalType": "address",
          "name": "account",
          "type": "address"
        },
        {
          "internalType": "uint32",
          "name": "pos",
          "type": "uint32"
        }
      ],
      "name": "checkpoints",
      "outputs": [
        {
          "components": [
            {
              "internalType": "uint32",
              "name": "fromBlock",
              "type": "uint32"
            },
            {
              "internalType": "uint224",
              "name": "votes",
              "type": "uint224"
            }
          ],
          "internalType": "struct ERC20Votes.Checkpoint",
          "name": "",
          "type": "tuple"
        }
      ],
      "stateMutability": "view",
      "type": "function"
    },
    {
      "inputs": [],
      "name": "decimals",
      "outputs": [
        {
          "internalType": "uint8",
          "name": "",
          "type": "uint8"
        }
      ],
      "stateMutability": "view",
      "type": "function"
    },
    {
      "inputs": [
        {
          "internalType": "address",
          "name": "spender",
          "type": "address"
        },
        {
          "internalType": "uint256",
          "name": "subtractedValue",
          "type": "uint256"
        }
      ],
      "name": "decreaseAllowance",
      "outputs": [
        {
          "internalType": "bool",
          "name": "",
          "type": "bool"
        }
      ],
      "stateMutability": "nonpayable",
      "type": "function"
    },
    {
      "inputs": [
        {
          "internalType": "address",
          "name": "delegatee",
          "type": "address"
        }
      ],
      "name": "delegate",
      "outputs": [],
      "stateMutability": "nonpayable",
      "type": "function"
    },
    {
      "inputs": [
        {
          "internalType": "address",
          "name": "delegatee",
          "type": "address"
        },
        {
          "internalType": "uint256",
          "name": "nonce",
          "type": "uint256"
        },
        {
          "internalType": "uint256",
          "name": "expiry",
          "type": "uint256"
        },
        {
          "internalType": "uint8",
          "name": "v",
          "type": "uint8"
        },
        {
          "internalType": "bytes32",
          "name": "r",
          "type": "bytes32"
        },
        {
          "internalType": "bytes32",
          "name": "s",
          "type": "bytes32"
        }
      ],
      "name": "delegateBySig",
      "outputs": [],
      "stateMutability": "nonpayable",
      "type": "function"
    },
    {
      "inputs": [
        {
          "internalType": "address",
          "name": "account",
          "type": "address"
        }
      ],
      "name": "delegates",
      "outputs": [
        {
          "internalType": "address",
          "name": "",
          "type": "address"
        }
      ],
      "stateMutability": "view",
      "type": "function"
    },
    {
      "inputs": [
        {
          "internalType": "uint256",
          "name": "_amount",
          "type": "uint256"
        }
      ],
      "name": "exchangeEXP",
      "outputs": [],
      "stateMutability": "nonpayable",
      "type": "function"
    },
    {
      "inputs": [
        {
          "internalType": "address",
          "name": "token",
          "type": "address"
        },
        {
          "internalType": "uint256",
          "name": "amount",
          "type": "uint256"
        }
      ],
      "name": "flashFee",
      "outputs": [
        {
          "internalType": "uint256",
          "name": "",
          "type": "uint256"
        }
      ],
      "stateMutability": "view",
      "type": "function"
    },
    {
      "inputs": [
        {
          "internalType": "contract IERC3156FlashBorrower",
          "name": "receiver",
          "type": "address"
        },
        {
          "internalType": "address",
          "name": "token",
          "type": "address"
        },
        {
          "internalType": "uint256",
          "name": "amount",
          "type": "uint256"
        },
        {
          "internalType": "bytes",
          "name": "data",
          "type": "bytes"
        }
      ],
      "name": "flashLoan",
      "outputs": [
        {
          "internalType": "bool",
          "name": "",
          "type": "bool"
        }
      ],
      "stateMutability": "nonpayable",
      "type": "function"
    },
    {
      "inputs": [
        {
          "internalType": "uint256",
          "name": "_amount",
          "type": "uint256"
        }
      ],
      "name": "fundUSDC",
      "outputs": [],
      "stateMutability": "nonpayable",
      "type": "function"
    },
    {
      "inputs": [
        {
          "internalType": "uint256",
          "name": "blockNumber",
          "type": "uint256"
        }
      ],
      "name": "getPastTotalSupply",
      "outputs": [
        {
          "internalType": "uint256",
          "name": "",
          "type": "uint256"
        }
      ],
      "stateMutability": "view",
      "type": "function"
    },
    {
      "inputs": [
        {
          "internalType": "address",
          "name": "account",
          "type": "address"
        },
        {
          "internalType": "uint256",
          "name": "blockNumber",
          "type": "uint256"
        }
      ],
      "name": "getPastVotes",
      "outputs": [
        {
          "internalType": "uint256",
          "name": "",
          "type": "uint256"
        }
      ],
      "stateMutability": "view",
      "type": "function"
    },
    {
      "inputs": [
        {
          "internalType": "address",
          "name": "account",
          "type": "address"
        }
      ],
      "name": "getVotes",
      "outputs": [
        {
          "internalType": "uint256",
          "name": "",
          "type": "uint256"
        }
      ],
      "stateMutability": "view",
      "type": "function"
    },
    {
      "inputs": [
        {
          "internalType": "address",
          "name": "spender",
          "type": "address"
        },
        {
          "internalType": "uint256",
          "name": "addedValue",
          "type": "uint256"
        }
      ],
      "name": "increaseAllowance",
      "outputs": [
        {
          "internalType": "bool",
          "name": "",
          "type": "bool"
        }
      ],
      "stateMutability": "nonpayable",
      "type": "function"
    },
    {
      "inputs": [
        {
          "internalType": "address",
          "name": "token",
          "type": "address"
        }
      ],
      "name": "maxFlashLoan",
      "outputs": [
        {
          "internalType": "uint256",
          "name": "",
          "type": "uint256"
        }
      ],
      "stateMutability": "view",
      "type": "function"
    },
    {
      "inputs": [
        {
          "internalType": "address",
          "name": "to",
          "type": "address"
        },
        {
          "internalType": "uint256",
          "name": "amount",
          "type": "uint256"
        }
      ],
      "name": "mint",
      "outputs": [],
      "stateMutability": "nonpayable",
      "type": "function"
    },
    {
      "inputs": [],
      "name": "name",
      "outputs": [
        {
          "internalType": "string",
          "name": "",
          "type": "string"
        }
      ],
      "stateMutability": "view",
      "type": "function"
    },
    {
      "inputs": [
        {
          "internalType": "address",
          "name": "owner",
          "type": "address"
        }
      ],
      "name": "nonces",
      "outputs": [
        {
          "internalType": "uint256",
          "name": "",
          "type": "uint256"
        }
      ],
      "stateMutability": "view",
      "type": "function"
    },
    {
      "inputs": [
        {
          "internalType": "address",
          "name": "account",
          "type": "address"
        }
      ],
      "name": "numCheckpoints",
      "outputs": [
        {
          "internalType": "uint32",
          "name": "",
          "type": "uint32"
        }
      ],
      "stateMutability": "view",
      "type": "function"
    },
    {
      "inputs": [],
      "name": "owner",
      "outputs": [
        {
          "internalType": "address",
          "name": "",
          "type": "address"
        }
      ],
      "stateMutability": "view",
      "type": "function"
    },
    {
      "inputs": [],
      "name": "pause",
      "outputs": [],
      "stateMutability": "nonpayable",
      "type": "function"
    },
    {
      "inputs": [],
      "name": "paused",
      "outputs": [
        {
          "internalType": "bool",
          "name": "",
          "type": "bool"
        }
      ],
      "stateMutability": "view",
      "type": "function"
    },
    {
      "inputs": [
        {
          "internalType": "address",
          "name": "owner",
          "type": "address"
        },
        {
          "internalType": "address",
          "name": "spender",
          "type": "address"
        },
        {
          "internalType": "uint256",
          "name": "value",
          "type": "uint256"
        },
        {
          "internalType": "uint256",
          "name": "deadline",
          "type": "uint256"
        },
        {
          "internalType": "uint8",
          "name": "v",
          "type": "uint8"
        },
        {
          "internalType": "bytes32",
          "name": "r",
          "type": "bytes32"
        },
        {
          "internalType": "bytes32",
          "name": "s",
          "type": "bytes32"
        }
      ],
      "name": "permit",
      "outputs": [],
      "stateMutability": "nonpayable",
      "type": "function"
    },
    {
      "inputs": [],
      "name": "renounceOwnership",
      "outputs": [],
      "stateMutability": "nonpayable",
      "type": "function"
    },
    {
      "inputs": [],
      "name": "symbol",
      "outputs": [
        {
          "internalType": "string",
          "name": "",
          "type": "string"
        }
      ],
      "stateMutability": "view",
      "type": "function"
    },
    {
      "inputs": [],
      "name": "totalSupply",
      "outputs": [
        {
          "internalType": "uint256",
          "name": "",
          "type": "uint256"
        }
      ],
      "stateMutability": "view",
      "type": "function"
    },
    {
      "inputs": [
        {
          "internalType": "address",
          "name": "to",
          "type": "address"
        },
        {
          "internalType": "uint256",
          "name": "amount",
          "type": "uint256"
        }
      ],
      "name": "transfer",
      "outputs": [
        {
          "internalType": "bool",
          "name": "",
          "type": "bool"
        }
      ],
      "stateMutability": "nonpayable",
      "type": "function"
    },
    {
      "inputs": [
        {
          "internalType": "address",
          "name": "from",
          "type": "address"
        },
        {
          "internalType": "address",
          "name": "to",
          "type": "address"
        },
        {
          "internalType": "uint256",
          "name": "amount",
          "type": "uint256"
        }
      ],
      "name": "transferFrom",
      "outputs": [
        {
          "internalType": "bool",
          "name": "",
          "type": "bool"
        }
      ],
      "stateMutability": "nonpayable",
      "type": "function"
    },
    {
      "inputs": [
        {
          "internalType": "address",
          "name": "newOwner",
          "type": "address"
        }
      ],
      "name": "transferOwnership",
      "outputs": [],
      "stateMutability": "nonpayable",
      "type": "function"
    },
    {
      "inputs": [],
      "name": "unpause",
      "outputs": [],
      "stateMutability": "nonpayable",
      "type": "function"
    },
    {
      "inputs": [],
      "name": "usdc",
      "outputs": [
        {
          "internalType": "contract IERC20",
          "name": "",
          "type": "address"
        }
      ],
      "stateMutability": "view",
      "type": "function"
    }
  ],
  "bytecode": "0x6101406040523480156200001257600080fd5b506040518060400160405280600781526020017f457870656e736500000000000000000000000000000000000000000000000000815250806040518060400160405280600181526020017f31000000000000000000000000000000000000000000000000000000000000008152506040518060400160405280600781526020017f457870656e7365000000000000000000000000000000000000000000000000008152506040518060400160405280600381526020017f455850000000000000000000000000000000000000000000000000000000000081525081600390805190602001906200010492919062000373565b5080600490805190602001906200011d92919062000373565b5050506000600560006101000a81548160ff0219169083151502179055506200015b6200014f6200026960201b60201c565b6200027160201b60201c565b60008280519060200120905060008280519060200120905060007f8b73c3c69bb8fe3d512ecc4cf759cc79239f7b179b0ffacaa9a75d522b39400f90508260e081815250508161010081815250504660a08181525050620001c48184846200033760201b60201c565b608081815250503073ffffffffffffffffffffffffffffffffffffffff1660c08173ffffffffffffffffffffffffffffffffffffffff168152505080610120818152505050505050505073df0360ad8c5ccf25095aa97ee5f2785c8d848620600b60006101000a81548173ffffffffffffffffffffffffffffffffffffffff021916908373ffffffffffffffffffffffffffffffffffffffff16021790555062000560565b600033905090565b6000600560019054906101000a900473ffffffffffffffffffffffffffffffffffffffff16905081600560016101000a81548173ffffffffffffffffffffffffffffffffffffffff021916908373ffffffffffffffffffffffffffffffffffffffff1602179055508173ffffffffffffffffffffffffffffffffffffffff168173ffffffffffffffffffffffffffffffffffffffff167f8be0079c531659141344cd1fd0a4f28419497f9722a3daafe3b4186f6b6457e060405160405180910390a35050565b60008383834630604051602001620003549594939291906200049e565b6040516020818303038152906040528051906020012090509392505050565b82805462000381906200052a565b90600052602060002090601f016020900481019282620003a55760008555620003f1565b82601f10620003c057805160ff1916838001178555620003f1565b82800160010185558215620003f1579182015b82811115620003f0578251825591602001919060010190620003d3565b5b50905062000400919062000404565b5090565b5b808211156200041f57600081600090555060010162000405565b5090565b6000819050919050565b620004388162000423565b82525050565b6000819050919050565b62000453816200043e565b82525050565b600073ffffffffffffffffffffffffffffffffffffffff82169050919050565b6000620004868262000459565b9050919050565b620004988162000479565b82525050565b600060a082019050620004b560008301886200042d565b620004c460208301876200042d565b620004d360408301866200042d565b620004e2606083018562000448565b620004f160808301846200048d565b9695505050505050565b7f4e487b7100000000000000000000000000000000000000000000000000000000600052602260045260246000fd5b600060028204905060018216806200054357607f821691505b602082108114156200055a5762000559620004fb565b5b50919050565b60805160a05160c05160e05161010051610120516154cd620005b06000396000611ce001526000611d2201526000611d0101526000611c3601526000611c8c01526000611cb501526154cd6000f3fe608060405234801561001057600080fd5b50600436106102275760003560e01c80636fcfff45116101305780639ab24eb0116100b8578063d505accf1161007c578063d505accf1461069e578063d9d98ce4146106ba578063dd62ed3e146106ea578063f1127ed81461071a578063f2fde38b1461074a57610227565b80639ab24eb0146105d6578063a457c2d714610606578063a9059cbb14610636578063b6c5f2ab14610666578063c3cda5201461068257610227565b80637ecebe00116100ff5780637ecebe00146105305780638456cb59146105605780638da5cb5b1461056a5780638e539e8c1461058857806395d89b41146105b857610227565b80636fcfff45146104aa57806370a08231146104da578063715018a61461050a57806379cc67901461051457610227565b80633f4ba83a116101b3578063587cde1e11610182578063587cde1e146103e05780635c19a95c146104105780635c975abb1461042c5780635cffe9de1461044a578063613255ab1461047a57610227565b80633f4ba83a1461038257806340c10f191461038c57806342966c68146103a857806347c63733146103c457610227565b8063313ce567116101fa578063313ce567146102c85780633644e515146102e657806339509351146103045780633a46b1a8146103345780633e413bee1461036457610227565b806306fdde031461022c578063095ea7b31461024a57806318160ddd1461027a57806323b872dd14610298575b600080fd5b610234610766565b60405161024191906136af565b60405180910390f35b610264600480360381019061025f919061376f565b6107f8565b60405161027191906137ca565b60405180910390f35b61028261081b565b60405161028f91906137f4565b60405180910390f35b6102b260048036038101906102ad919061380f565b610825565b6040516102bf91906137ca565b60405180910390f35b6102d0610854565b6040516102dd919061387e565b60405180910390f35b6102ee61085d565b6040516102fb91906138b2565b60405180910390f35b61031e6004803603810190610319919061376f565b61086c565b60405161032b91906137ca565b60405180910390f35b61034e6004803603810190610349919061376f565b6108a3565b60405161035b91906137f4565b60405180910390f35b61036c610937565b604051610379919061392c565b60405180910390f35b61038a61095d565b005b6103a660048036038101906103a1919061376f565b61096f565b005b6103c260048036038101906103bd9190613947565b610985565b005b6103de60048036038101906103d99190613947565b610999565b005b6103fa60048036038101906103f59190613974565b610a0d565b60405161040791906139b0565b60405180910390f35b61042a60048036038101906104259190613974565b610a76565b005b610434610a8a565b60405161044191906137ca565b60405180910390f35b610464600480360381019061045f9190613a6e565b610aa1565b60405161047191906137ca565b60405180910390f35b610494600480360381019061048f9190613974565b610c9d565b6040516104a191906137f4565b60405180910390f35b6104c460048036038101906104bf9190613974565b610d14565b6040516104d19190613b15565b60405180910390f35b6104f460048036038101906104ef9190613974565b610d68565b60405161050191906137f4565b60405180910390f35b610512610db0565b005b61052e6004803603810190610529919061376f565b610dc4565b005b61054a60048036038101906105459190613974565b610de4565b60405161055791906137f4565b60405180910390f35b610568610e34565b005b610572610e46565b60405161057f91906139b0565b60405180910390f35b6105a2600480360381019061059d9190613947565b610e70565b6040516105af91906137f4565b60405180910390f35b6105c0610ec6565b6040516105cd91906136af565b60405180910390f35b6105f060048036038101906105eb9190613974565b610f58565b6040516105fd91906137f4565b60405180910390f35b610620600480360381019061061b919061376f565b611069565b60405161062d91906137ca565b60405180910390f35b610650600480360381019061064b919061376f565b6110e0565b60405161065d91906137ca565b60405180910390f35b610680600480360381019061067b9190613947565b611103565b005b61069c60048036038101906106979190613b88565b611278565b005b6106b860048036038101906106b39190613c15565b61137c565b005b6106d460048036038101906106cf919061376f565b6114be565b6040516106e191906137f4565b60405180910390f35b61070460048036038101906106ff9190613cb7565b611540565b60405161071191906137f4565b60405180910390f35b610734600480360381019061072f9190613d23565b6115c7565b6040516107419190613dd8565b60405180910390f35b610764600480360381019061075f9190613974565b6116d7565b005b60606003805461077590613e22565b80601f01602080910402602001604051908101604052809291908181526020018280546107a190613e22565b80156107ee5780601f106107c3576101008083540402835291602001916107ee565b820191906000526020600020905b8154815290600101906020018083116107d157829003601f168201915b5050505050905090565b60008061080361175b565b9050610810818585611763565b600191505092915050565b6000600254905090565b60008061083061175b565b905061083d85828561192e565b6108488585856119ba565b60019150509392505050565b60006012905090565b6000610867611c32565b905090565b60008061087761175b565b90506108988185856108898589611540565b6108939190613e83565b611763565b600191505092915050565b60004382106108e7576040517f08c379a00000000000000000000000000000000000000000000000000000000081526004016108de90613f25565b60405180910390fd5b61092f600960008573ffffffffffffffffffffffffffffffffffffffff1673ffffffffffffffffffffffffffffffffffffffff16815260200190815260200160002083611d4c565b905092915050565b600b60009054906101000a900473ffffffffffffffffffffffffffffffffffffffff1681565b610965611e9d565b61096d611f1b565b565b610977611e9d565b6109818282611f7e565b5050565b61099661099061175b565b82611f8c565b50565b600081116109dc576040517f08c379a00000000000000000000000000000000000000000000000000000000081526004016109d390613f91565b60405180910390fd5b610a0a600b60009054906101000a900473ffffffffffffffffffffffffffffffffffffffff16333084611f9a565b50565b6000600860008373ffffffffffffffffffffffffffffffffffffffff1673ffffffffffffffffffffffffffffffffffffffff16815260200190815260200160002060009054906101000a900473ffffffffffffffffffffffffffffffffffffffff169050919050565b610a87610a8161175b565b82612023565b50565b6000600560009054906101000a900460ff16905090565b6000610aac85610c9d565b841115610aee576040517f08c379a0000000000000000000000000000000000000000000000000000000008152600401610ae590614023565b60405180910390fd5b6000610afa86866114be565b9050610b068786611f7e565b7f439148f0bbc682ca079e46d6e2c2f0c1e3b820f1a291b069d8882abf8cf18dd98773ffffffffffffffffffffffffffffffffffffffff166323e30c8b338989868a8a6040518763ffffffff1660e01b8152600401610b6a96959493929190614090565b602060405180830381600087803b158015610b8457600080fd5b505af1158015610b98573d6000803e3d6000fd5b505050506040513d601f19601f82011682018060405250810190610bbc9190614101565b14610bfc576040517f08c379a0000000000000000000000000000000000000000000000000000000008152600401610bf3906141a0565b60405180910390fd5b6000610c0661213d565b9050610c1e88308489610c199190613e83565b61192e565b6000821480610c595750600073ffffffffffffffffffffffffffffffffffffffff168173ffffffffffffffffffffffffffffffffffffffff16145b15610c7857610c73888388610c6e9190613e83565b611f8c565b610c8e565b610c828887611f8c565b610c8d8882846119ba565b5b60019250505095945050505050565b60003073ffffffffffffffffffffffffffffffffffffffff168273ffffffffffffffffffffffffffffffffffffffff1614610cd9576000610d0d565b610ce161081b565b7fffffffffffffffffffffffffffffffffffffffffffffffffffffffffffffffff610d0c91906141c0565b5b9050919050565b6000610d61600960008473ffffffffffffffffffffffffffffffffffffffff1673ffffffffffffffffffffffffffffffffffffffff16815260200190815260200160002080549050612142565b9050919050565b60008060008373ffffffffffffffffffffffffffffffffffffffff1673ffffffffffffffffffffffffffffffffffffffff168152602001908152602001600020549050919050565b610db8611e9d565b610dc26000612195565b565b610dd682610dd061175b565b8361192e565b610de08282611f8c565b5050565b6000610e2d600660008473ffffffffffffffffffffffffffffffffffffffff1673ffffffffffffffffffffffffffffffffffffffff16815260200190815260200160002061225b565b9050919050565b610e3c611e9d565b610e44612269565b565b6000600560019054906101000a900473ffffffffffffffffffffffffffffffffffffffff16905090565b6000438210610eb4576040517f08c379a0000000000000000000000000000000000000000000000000000000008152600401610eab90613f25565b60405180910390fd5b610ebf600a83611d4c565b9050919050565b606060048054610ed590613e22565b80601f0160208091040260200160405190810160405280929190818152602001828054610f0190613e22565b8015610f4e5780601f10610f2357610100808354040283529160200191610f4e565b820191906000526020600020905b815481529060010190602001808311610f3157829003601f168201915b5050505050905090565b600080600960008473ffffffffffffffffffffffffffffffffffffffff1673ffffffffffffffffffffffffffffffffffffffff1681526020019081526020016000208054905090506000811461104057600960008473ffffffffffffffffffffffffffffffffffffffff1673ffffffffffffffffffffffffffffffffffffffff168152602001908152602001600020600182610ff491906141c0565b81548110611005576110046141f4565b5b9060005260206000200160000160049054906101000a90047bffffffffffffffffffffffffffffffffffffffffffffffffffffffff16611043565b60005b7bffffffffffffffffffffffffffffffffffffffffffffffffffffffff16915050919050565b60008061107461175b565b905060006110828286611540565b9050838110156110c7576040517f08c379a00000000000000000000000000000000000000000000000000000000081526004016110be90614295565b60405180910390fd5b6110d48286868403611763565b60019250505092915050565b6000806110eb61175b565b90506110f88185856119ba565b600191505092915050565b60008111611146576040517f08c379a000000000000000000000000000000000000000000000000000000000815260040161113d90613f91565b60405180910390fd5b6111513330836119ba565b80600b60009054906101000a900473ffffffffffffffffffffffffffffffffffffffff1673ffffffffffffffffffffffffffffffffffffffff166370a08231306040518263ffffffff1660e01b81526004016111ad91906139b0565b60206040518083038186803b1580156111c557600080fd5b505afa1580156111d9573d6000803e3d6000fd5b505050506040513d601f19601f820116820180604052508101906111fd91906142ca565b101561123e576040517f08c379a000000000000000000000000000000000000000000000000000000000815260040161123590614343565b60405180910390fd5b61126b600b60009054906101000a900473ffffffffffffffffffffffffffffffffffffffff1633836122cc565b6112753082611f8c565b50565b834211156112bb576040517f08c379a00000000000000000000000000000000000000000000000000000000081526004016112b2906143af565b60405180910390fd5b600061131d6113157fe48329057bfd03d55e49b547132e39cffd9c1820ad7b9d4c5307691425d15adf8989896040516020016112fa94939291906143cf565b60405160208183030381529060405280519060200120612352565b85858561236c565b905061132881612397565b8614611369576040517f08c379a000000000000000000000000000000000000000000000000000000000815260040161136090614460565b60405180910390fd5b6113738188612023565b50505050505050565b834211156113bf576040517f08c379a00000000000000000000000000000000000000000000000000000000081526004016113b6906144cc565b60405180910390fd5b60007f6e71edae12b1b97f4d1f60370fef10105fa2faae0126114a169c64845d6126c98888886113ee8c612397565b89604051602001611404969594939291906144ec565b604051602081830303815290604052805190602001209050600061142782612352565b905060006114378287878761236c565b90508973ffffffffffffffffffffffffffffffffffffffff168173ffffffffffffffffffffffffffffffffffffffff16146114a7576040517f08c379a000000000000000000000000000000000000000000000000000000000815260040161149e90614599565b60405180910390fd5b6114b28a8a8a611763565b50505050505050505050565b60003073ffffffffffffffffffffffffffffffffffffffff168373ffffffffffffffffffffffffffffffffffffffff161461152e576040517f08c379a000000000000000000000000000000000000000000000000000000000815260040161152590614605565b60405180910390fd5b61153883836123f5565b905092915050565b6000600160008473ffffffffffffffffffffffffffffffffffffffff1673ffffffffffffffffffffffffffffffffffffffff16815260200190815260200160002060008373ffffffffffffffffffffffffffffffffffffffff1673ffffffffffffffffffffffffffffffffffffffff16815260200190815260200160002054905092915050565b6115cf6135d8565b600960008473ffffffffffffffffffffffffffffffffffffffff1673ffffffffffffffffffffffffffffffffffffffff1681526020019081526020016000208263ffffffff1681548110611626576116256141f4565b5b906000526020600020016040518060400160405290816000820160009054906101000a900463ffffffff1663ffffffff1663ffffffff1681526020016000820160049054906101000a90047bffffffffffffffffffffffffffffffffffffffffffffffffffffffff167bffffffffffffffffffffffffffffffffffffffffffffffffffffffff167bffffffffffffffffffffffffffffffffffffffffffffffffffffffff1681525050905092915050565b6116df611e9d565b600073ffffffffffffffffffffffffffffffffffffffff168173ffffffffffffffffffffffffffffffffffffffff16141561174f576040517f08c379a000000000000000000000000000000000000000000000000000000000815260040161174690614697565b60405180910390fd5b61175881612195565b50565b600033905090565b600073ffffffffffffffffffffffffffffffffffffffff168373ffffffffffffffffffffffffffffffffffffffff1614156117d3576040517f08c379a00000000000000000000000000000000000000000000000000000000081526004016117ca90614729565b60405180910390fd5b600073ffffffffffffffffffffffffffffffffffffffff168273ffffffffffffffffffffffffffffffffffffffff161415611843576040517f08c379a000000000000000000000000000000000000000000000000000000000815260040161183a906147bb565b60405180910390fd5b80600160008573ffffffffffffffffffffffffffffffffffffffff1673ffffffffffffffffffffffffffffffffffffffff16815260200190815260200160002060008473ffffffffffffffffffffffffffffffffffffffff1673ffffffffffffffffffffffffffffffffffffffff168152602001908152602001600020819055508173ffffffffffffffffffffffffffffffffffffffff168373ffffffffffffffffffffffffffffffffffffffff167f8c5be1e5ebec7d5bd14f71427d1e84f3dd0314c0f7b2291e5b200ac8c7c3b9258360405161192191906137f4565b60405180910390a3505050565b600061193a8484611540565b90507fffffffffffffffffffffffffffffffffffffffffffffffffffffffffffffffff81146119b457818110156119a6576040517f08c379a000000000000000000000000000000000000000000000000000000000815260040161199d90614827565b60405180910390fd5b6119b38484848403611763565b5b50505050565b600073ffffffffffffffffffffffffffffffffffffffff168373ffffffffffffffffffffffffffffffffffffffff161415611a2a576040517f08c379a0000000000000000000000000000000000000000000000000000000008152600401611a21906148b9565b60405180910390fd5b600073ffffffffffffffffffffffffffffffffffffffff168273ffffffffffffffffffffffffffffffffffffffff161415611a9a576040517f08c379a0000000000000000000000000000000000000000000000000000000008152600401611a919061494b565b60405180910390fd5b611aa58383836123fd565b60008060008573ffffffffffffffffffffffffffffffffffffffff1673ffffffffffffffffffffffffffffffffffffffff16815260200190815260200160002054905081811015611b2b576040517f08c379a0000000000000000000000000000000000000000000000000000000008152600401611b22906149dd565b60405180910390fd5b8181036000808673ffffffffffffffffffffffffffffffffffffffff1673ffffffffffffffffffffffffffffffffffffffff16815260200190815260200160002081905550816000808573ffffffffffffffffffffffffffffffffffffffff1673ffffffffffffffffffffffffffffffffffffffff168152602001908152602001600020600082825401925050819055508273ffffffffffffffffffffffffffffffffffffffff168473ffffffffffffffffffffffffffffffffffffffff167fddf252ad1be2c89b69c2b068fc378daa952ba7f163c4a11628f55a4df523b3ef84604051611c1991906137f4565b60405180910390a3611c2c848484612415565b50505050565b60007f000000000000000000000000000000000000000000000000000000000000000073ffffffffffffffffffffffffffffffffffffffff163073ffffffffffffffffffffffffffffffffffffffff16148015611cae57507f000000000000000000000000000000000000000000000000000000000000000046145b15611cdb577f00000000000000000000000000000000000000000000000000000000000000009050611d49565b611d467f00000000000000000000000000000000000000000000000000000000000000007f00000000000000000000000000000000000000000000000000000000000000007f0000000000000000000000000000000000000000000000000000000000000000612425565b90505b90565b600080838054905090506000808290506005831115611dc2576000611d708461245f565b84611d7b91906141c0565b905085611d888883612559565b60000160009054906101000a900463ffffffff1663ffffffff161115611db057809150611dc0565b600181611dbd9190613e83565b92505b505b5b80821015611e22576000611dd7838361256e565b905085611de48883612559565b60000160009054906101000a900463ffffffff1663ffffffff161115611e0c57809150611e1c565b600181611e199190613e83565b92505b50611dc3565b60008114611e7157611e4086600183611e3b91906141c0565b612559565b60000160049054906101000a90047bffffffffffffffffffffffffffffffffffffffffffffffffffffffff16611e74565b60005b7bffffffffffffffffffffffffffffffffffffffffffffffffffffffff16935050505092915050565b611ea561175b565b73ffffffffffffffffffffffffffffffffffffffff16611ec3610e46565b73ffffffffffffffffffffffffffffffffffffffff1614611f19576040517f08c379a0000000000000000000000000000000000000000000000000000000008152600401611f1090614a49565b60405180910390fd5b565b611f23612594565b6000600560006101000a81548160ff0219169083151502179055507f5db9ee0a495bf2e6ff9c91a7834c1ba4fdd244a5e8aa4e537bd38aeae4b073aa611f6761175b565b604051611f7491906139b0565b60405180910390a1565b611f8882826125dd565b5050565b611f96828261266a565b5050565b61201d846323b872dd60e01b858585604051602401611fbb93929190614a69565b604051602081830303815290604052907bffffffffffffffffffffffffffffffffffffffffffffffffffffffff19166020820180517bffffffffffffffffffffffffffffffffffffffffffffffffffffffff8381831617835250505050612688565b50505050565b600061202e83610a0d565b9050600061203b84610d68565b905082600860008673ffffffffffffffffffffffffffffffffffffffff1673ffffffffffffffffffffffffffffffffffffffff16815260200190815260200160002060006101000a81548173ffffffffffffffffffffffffffffffffffffffff021916908373ffffffffffffffffffffffffffffffffffffffff1602179055508273ffffffffffffffffffffffffffffffffffffffff168273ffffffffffffffffffffffffffffffffffffffff168573ffffffffffffffffffffffffffffffffffffffff167f3134e8a2e6d97e929a7e54011ea5485d7d196dd5f0ba4d4ef95803e8e3fc257f60405160405180910390a461213782848361274f565b50505050565b600090565b600063ffffffff801682111561218d576040517f08c379a000000000000000000000000000000000000000000000000000000000815260040161218490614b12565b60405180910390fd5b819050919050565b6000600560019054906101000a900473ffffffffffffffffffffffffffffffffffffffff16905081600560016101000a81548173ffffffffffffffffffffffffffffffffffffffff021916908373ffffffffffffffffffffffffffffffffffffffff1602179055508173ffffffffffffffffffffffffffffffffffffffff168173ffffffffffffffffffffffffffffffffffffffff167f8be0079c531659141344cd1fd0a4f28419497f9722a3daafe3b4186f6b6457e060405160405180910390a35050565b600081600001549050919050565b612271612948565b6001600560006101000a81548160ff0219169083151502179055507f62e78cea01bee320cd4e420270b5ea74000d11b0c9f74754ebdbfc544b05a2586122b561175b565b6040516122c291906139b0565b60405180910390a1565b61234d8363a9059cbb60e01b84846040516024016122eb929190614b32565b604051602081830303815290604052907bffffffffffffffffffffffffffffffffffffffffffffffffffffffff19166020820180517bffffffffffffffffffffffffffffffffffffffffffffffffffffffff8381831617835250505050612688565b505050565b600061236561235f611c32565b83612992565b9050919050565b600080600061237d878787876129c5565b9150915061238a81612aa8565b8192505050949350505050565b600080600660008473ffffffffffffffffffffffffffffffffffffffff1673ffffffffffffffffffffffffffffffffffffffff16815260200190815260200160002090506123e48161225b565b91506123ef81612c16565b50919050565b600092915050565b612405612948565b612410838383612c2c565b505050565b612420838383612c31565b505050565b60008383834630604051602001612440959493929190614b5b565b6040516020818303038152906040528051906020012090509392505050565b6000808214156124725760009050612554565b6000600161247f84612c5c565b901c6001901b9050600181848161249957612498614bae565b5b048201901c905060018184816124b2576124b1614bae565b5b048201901c905060018184816124cb576124ca614bae565b5b048201901c905060018184816124e4576124e3614bae565b5b048201901c905060018184816124fd576124fc614bae565b5b048201901c9050600181848161251657612515614bae565b5b048201901c9050600181848161252f5761252e614bae565b5b048201901c90506125508182858161254a57612549614bae565b5b04612d3d565b9150505b919050565b60008260005281602060002001905092915050565b6000600282841861257f9190614bdd565b82841661258c9190613e83565b905092915050565b61259c610a8a565b6125db576040517f08c379a00000000000000000000000000000000000000000000000000000000081526004016125d290614c5a565b60405180910390fd5b565b6125e78282612d56565b6125ef612ead565b7bffffffffffffffffffffffffffffffffffffffffffffffffffffffff1661261561081b565b1115612656576040517f08c379a000000000000000000000000000000000000000000000000000000000815260040161264d90614cec565b60405180910390fd5b612664600a612ed183612ee7565b50505050565b61267482826131b6565b612682600a61338483612ee7565b50505050565b60006126ea826040518060400160405280602081526020017f5361666545524332303a206c6f772d6c6576656c2063616c6c206661696c65648152508573ffffffffffffffffffffffffffffffffffffffff1661339a9092919063ffffffff16565b905060008151111561274a578080602001905181019061270a9190614d38565b612749576040517f08c379a000000000000000000000000000000000000000000000000000000000815260040161274090614dd7565b60405180910390fd5b5b505050565b8173ffffffffffffffffffffffffffffffffffffffff168373ffffffffffffffffffffffffffffffffffffffff161415801561278b5750600081115b1561294357600073ffffffffffffffffffffffffffffffffffffffff168373ffffffffffffffffffffffffffffffffffffffff161461286957600080612812600960008773ffffffffffffffffffffffffffffffffffffffff1673ffffffffffffffffffffffffffffffffffffffff16815260200190815260200160002061338485612ee7565b915091508473ffffffffffffffffffffffffffffffffffffffff167fdec2bacdd2f05b59de34da9b523dff8be42e5e38e818c82fdb0bae774387a724838360405161285e929190614df7565b60405180910390a250505b600073ffffffffffffffffffffffffffffffffffffffff168273ffffffffffffffffffffffffffffffffffffffff1614612942576000806128eb600960008673ffffffffffffffffffffffffffffffffffffffff1673ffffffffffffffffffffffffffffffffffffffff168152602001908152602001600020612ed185612ee7565b915091508373ffffffffffffffffffffffffffffffffffffffff167fdec2bacdd2f05b59de34da9b523dff8be42e5e38e818c82fdb0bae774387a7248383604051612937929190614df7565b60405180910390a250505b5b505050565b612950610a8a565b15612990576040517f08c379a000000000000000000000000000000000000000000000000000000000815260040161298790614e6c565b60405180910390fd5b565b600082826040516020016129a7929190614f04565b60405160208183030381529060405280519060200120905092915050565b6000807f7fffffffffffffffffffffffffffffff5d576e7357a4501ddfe92f46681b20a08360001c1115612a00576000600391509150612a9f565b600060018787878760405160008152602001604052604051612a259493929190614f3b565b6020604051602081039080840390855afa158015612a47573d6000803e3d6000fd5b505050602060405103519050600073ffffffffffffffffffffffffffffffffffffffff168173ffffffffffffffffffffffffffffffffffffffff161415612a9657600060019250925050612a9f565b80600092509250505b94509492505050565b60006004811115612abc57612abb614f80565b5b816004811115612acf57612ace614f80565b5b1415612ada57612c13565b60016004811115612aee57612aed614f80565b5b816004811115612b0157612b00614f80565b5b1415612b42576040517f08c379a0000000000000000000000000000000000000000000000000000000008152600401612b3990614ffb565b60405180910390fd5b60026004811115612b5657612b55614f80565b5b816004811115612b6957612b68614f80565b5b1415612baa576040517f08c379a0000000000000000000000000000000000000000000000000000000008152600401612ba190615067565b60405180910390fd5b60036004811115612bbe57612bbd614f80565b5b816004811115612bd157612bd0614f80565b5b1415612c12576040517f08c379a0000000000000000000000000000000000000000000000000000000008152600401612c09906150f9565b60405180910390fd5b5b50565b6001816000016000828254019250508190555050565b505050565b612c3c8383836133b2565b612c57612c4884610a0d565b612c5184610a0d565b8361274f565b505050565b600080600090506000608084901c1115612c7e57608083901c92506080810190505b6000604084901c1115612c9957604083901c92506040810190505b6000602084901c1115612cb457602083901c92506020810190505b6000601084901c1115612ccf57601083901c92506010810190505b6000600884901c1115612cea57600883901c92506008810190505b6000600484901c1115612d0557600483901c92506004810190505b6000600284901c1115612d2057600283901c92506002810190505b6000600184901c1115612d34576001810190505b80915050919050565b6000818310612d4c5781612d4e565b825b905092915050565b600073ffffffffffffffffffffffffffffffffffffffff168273ffffffffffffffffffffffffffffffffffffffff161415612dc6576040517f08c379a0000000000000000000000000000000000000000000000000000000008152600401612dbd90615165565b60405180910390fd5b612dd2600083836123fd565b8060026000828254612de49190613e83565b92505081905550806000808473ffffffffffffffffffffffffffffffffffffffff1673ffffffffffffffffffffffffffffffffffffffff168152602001908152602001600020600082825401925050819055508173ffffffffffffffffffffffffffffffffffffffff16600073ffffffffffffffffffffffffffffffffffffffff167fddf252ad1be2c89b69c2b068fc378daa952ba7f163c4a11628f55a4df523b3ef83604051612e9591906137f4565b60405180910390a3612ea960008383612415565b5050565b60007bffffffffffffffffffffffffffffffffffffffffffffffffffffffff905090565b60008183612edf9190613e83565b905092915050565b6000806000858054905090506000808214612fb657612f1287600184612f0d91906141c0565b612559565b6040518060400160405290816000820160009054906101000a900463ffffffff1663ffffffff1663ffffffff1681526020016000820160049054906101000a90047bffffffffffffffffffffffffffffffffffffffffffffffffffffffff167bffffffffffffffffffffffffffffffffffffffffffffffffffffffff167bffffffffffffffffffffffffffffffffffffffffffffffffffffffff1681525050612ff2565b6040518060400160405280600063ffffffff16815260200160007bffffffffffffffffffffffffffffffffffffffffffffffffffffffff168152505b905080602001517bffffffffffffffffffffffffffffffffffffffffffffffffffffffff16935061302784868863ffffffff16565b9250600082118015613042575043816000015163ffffffff16145b156130bc57613050836133b7565b6130668860018561306191906141c0565b612559565b60000160046101000a8154817bffffffffffffffffffffffffffffffffffffffffffffffffffffffff02191690837bffffffffffffffffffffffffffffffffffffffffffffffffffffffff1602179055506131ac565b8660405180604001604052806130d143612142565b63ffffffff1681526020016130e5866133b7565b7bffffffffffffffffffffffffffffffffffffffffffffffffffffffff168152509080600181540180825580915050600190039060005260206000200160009091909190915060008201518160000160006101000a81548163ffffffff021916908363ffffffff16021790555060208201518160000160046101000a8154817bffffffffffffffffffffffffffffffffffffffffffffffffffffffff02191690837bffffffffffffffffffffffffffffffffffffffffffffffffffffffff16021790555050505b5050935093915050565b600073ffffffffffffffffffffffffffffffffffffffff168273ffffffffffffffffffffffffffffffffffffffff161415613226576040517f08c379a000000000000000000000000000000000000000000000000000000000815260040161321d906151f7565b60405180910390fd5b613232826000836123fd565b60008060008473ffffffffffffffffffffffffffffffffffffffff1673ffffffffffffffffffffffffffffffffffffffff168152602001908152602001600020549050818110156132b8576040517f08c379a00000000000000000000000000000000000000000000000000000000081526004016132af90615289565b60405180910390fd5b8181036000808573ffffffffffffffffffffffffffffffffffffffff1673ffffffffffffffffffffffffffffffffffffffff1681526020019081526020016000208190555081600260008282540392505081905550600073ffffffffffffffffffffffffffffffffffffffff168373ffffffffffffffffffffffffffffffffffffffff167fddf252ad1be2c89b69c2b068fc378daa952ba7f163c4a11628f55a4df523b3ef8460405161336b91906137f4565b60405180910390a361337f83600084612415565b505050565b6000818361339291906141c0565b905092915050565b60606133a98484600085613422565b90509392505050565b505050565b60007bffffffffffffffffffffffffffffffffffffffffffffffffffffffff801682111561341a576040517f08c379a00000000000000000000000000000000000000000000000000000000081526004016134119061531b565b60405180910390fd5b819050919050565b606082471015613467576040517f08c379a000000000000000000000000000000000000000000000000000000000815260040161345e906153ad565b60405180910390fd5b6000808673ffffffffffffffffffffffffffffffffffffffff1685876040516134909190615414565b60006040518083038185875af1925050503d80600081146134cd576040519150601f19603f3d011682016040523d82523d6000602084013e6134d2565b606091505b50915091506134e3878383876134ef565b92505050949350505050565b606083156135525760008351141561354a5761350a85613565565b613549576040517f08c379a000000000000000000000000000000000000000000000000000000000815260040161354090615477565b60405180910390fd5b5b82905061355d565b61355c8383613588565b5b949350505050565b6000808273ffffffffffffffffffffffffffffffffffffffff163b119050919050565b60008251111561359b5781518083602001fd5b806040517f08c379a00000000000000000000000000000000000000000000000000000000081526004016135cf91906136af565b60405180910390fd5b6040518060400160405280600063ffffffff16815260200160007bffffffffffffffffffffffffffffffffffffffffffffffffffffffff1681525090565b600081519050919050565b600082825260208201905092915050565b60005b83811015613650578082015181840152602081019050613635565b8381111561365f576000848401525b50505050565b6000601f19601f8301169050919050565b600061368182613616565b61368b8185613621565b935061369b818560208601613632565b6136a481613665565b840191505092915050565b600060208201905081810360008301526136c98184613676565b905092915050565b600080fd5b600080fd5b600073ffffffffffffffffffffffffffffffffffffffff82169050919050565b6000613706826136db565b9050919050565b613716816136fb565b811461372157600080fd5b50565b6000813590506137338161370d565b92915050565b6000819050919050565b61374c81613739565b811461375757600080fd5b50565b60008135905061376981613743565b92915050565b60008060408385031215613786576137856136d1565b5b600061379485828601613724565b92505060206137a58582860161375a565b9150509250929050565b60008115159050919050565b6137c4816137af565b82525050565b60006020820190506137df60008301846137bb565b92915050565b6137ee81613739565b82525050565b600060208201905061380960008301846137e5565b92915050565b600080600060608486031215613828576138276136d1565b5b600061383686828701613724565b935050602061384786828701613724565b92505060406138588682870161375a565b9150509250925092565b600060ff82169050919050565b61387881613862565b82525050565b6000602082019050613893600083018461386f565b92915050565b6000819050919050565b6138ac81613899565b82525050565b60006020820190506138c760008301846138a3565b92915050565b6000819050919050565b60006138f26138ed6138e8846136db565b6138cd565b6136db565b9050919050565b6000613904826138d7565b9050919050565b6000613916826138f9565b9050919050565b6139268161390b565b82525050565b6000602082019050613941600083018461391d565b92915050565b60006020828403121561395d5761395c6136d1565b5b600061396b8482850161375a565b91505092915050565b60006020828403121561398a576139896136d1565b5b600061399884828501613724565b91505092915050565b6139aa816136fb565b82525050565b60006020820190506139c560008301846139a1565b92915050565b60006139d6826136fb565b9050919050565b6139e6816139cb565b81146139f157600080fd5b50565b600081359050613a03816139dd565b92915050565b600080fd5b600080fd5b600080fd5b60008083601f840112613a2e57613a2d613a09565b5b8235905067ffffffffffffffff811115613a4b57613a4a613a0e565b5b602083019150836001820283011115613a6757613a66613a13565b5b9250929050565b600080600080600060808688031215613a8a57613a896136d1565b5b6000613a98888289016139f4565b9550506020613aa988828901613724565b9450506040613aba8882890161375a565b935050606086013567ffffffffffffffff811115613adb57613ada6136d6565b5b613ae788828901613a18565b92509250509295509295909350565b600063ffffffff82169050919050565b613b0f81613af6565b82525050565b6000602082019050613b2a6000830184613b06565b92915050565b613b3981613862565b8114613b4457600080fd5b50565b600081359050613b5681613b30565b92915050565b613b6581613899565b8114613b7057600080fd5b50565b600081359050613b8281613b5c565b92915050565b60008060008060008060c08789031215613ba557613ba46136d1565b5b6000613bb389828a01613724565b9650506020613bc489828a0161375a565b9550506040613bd589828a0161375a565b9450506060613be689828a01613b47565b9350506080613bf789828a01613b73565b92505060a0613c0889828a01613b73565b9150509295509295509295565b600080600080600080600060e0888a031215613c3457613c336136d1565b5b6000613c428a828b01613724565b9750506020613c538a828b01613724565b9650506040613c648a828b0161375a565b9550506060613c758a828b0161375a565b9450506080613c868a828b01613b47565b93505060a0613c978a828b01613b73565b92505060c0613ca88a828b01613b73565b91505092959891949750929550565b60008060408385031215613cce57613ccd6136d1565b5b6000613cdc85828601613724565b9250506020613ced85828601613724565b9150509250929050565b613d0081613af6565b8114613d0b57600080fd5b50565b600081359050613d1d81613cf7565b92915050565b60008060408385031215613d3a57613d396136d1565b5b6000613d4885828601613724565b9250506020613d5985828601613d0e565b9150509250929050565b613d6c81613af6565b82525050565b60007bffffffffffffffffffffffffffffffffffffffffffffffffffffffff82169050919050565b613da381613d72565b82525050565b604082016000820151613dbf6000850182613d63565b506020820151613dd26020850182613d9a565b50505050565b6000604082019050613ded6000830184613da9565b92915050565b7f4e487b7100000000000000000000000000000000000000000000000000000000600052602260045260246000fd5b60006002820490506001821680613e3a57607f821691505b60208210811415613e4e57613e4d613df3565b5b50919050565b7f4e487b7100000000000000000000000000000000000000000000000000000000600052601160045260246000fd5b6000613e8e82613739565b9150613e9983613739565b9250827fffffffffffffffffffffffffffffffffffffffffffffffffffffffffffffffff03821115613ece57613ecd613e54565b5b828201905092915050565b7f4552433230566f7465733a20626c6f636b206e6f7420796574206d696e656400600082015250565b6000613f0f601f83613621565b9150613f1a82613ed9565b602082019050919050565b60006020820190508181036000830152613f3e81613f02565b9050919050565b7f616d6f756e742073686f756c64206265203e2030000000000000000000000000600082015250565b6000613f7b601483613621565b9150613f8682613f45565b602082019050919050565b60006020820190508181036000830152613faa81613f6e565b9050919050565b7f4552433230466c6173684d696e743a20616d6f756e742065786365656473206d60008201527f6178466c6173684c6f616e000000000000000000000000000000000000000000602082015250565b600061400d602b83613621565b915061401882613fb1565b604082019050919050565b6000602082019050818103600083015261403c81614000565b9050919050565b600082825260208201905092915050565b82818337600083830152505050565b600061406f8385614043565b935061407c838584614054565b61408583613665565b840190509392505050565b600060a0820190506140a560008301896139a1565b6140b260208301886139a1565b6140bf60408301876137e5565b6140cc60608301866137e5565b81810360808301526140df818486614063565b9050979650505050505050565b6000815190506140fb81613b5c565b92915050565b600060208284031215614117576141166136d1565b5b6000614125848285016140ec565b91505092915050565b7f4552433230466c6173684d696e743a20696e76616c69642072657475726e207660008201527f616c756500000000000000000000000000000000000000000000000000000000602082015250565b600061418a602483613621565b91506141958261412e565b604082019050919050565b600060208201905081810360008301526141b98161417d565b9050919050565b60006141cb82613739565b91506141d683613739565b9250828210156141e9576141e8613e54565b5b828203905092915050565b7f4e487b7100000000000000000000000000000000000000000000000000000000600052603260045260246000fd5b7f45524332303a2064656372656173656420616c6c6f77616e63652062656c6f7760008201527f207a65726f000000000000000000000000000000000000000000000000000000602082015250565b600061427f602583613621565b915061428a82614223565b604082019050919050565b600060208201905081810360008301526142ae81614272565b9050919050565b6000815190506142c481613743565b92915050565b6000602082840312156142e0576142df6136d1565b5b60006142ee848285016142b5565b91505092915050565b7f4e6f7420656e6f756768205553444320696e20636f6e74726163740000000000600082015250565b600061432d601b83613621565b9150614338826142f7565b602082019050919050565b6000602082019050818103600083015261435c81614320565b9050919050565b7f4552433230566f7465733a207369676e61747572652065787069726564000000600082015250565b6000614399601d83613621565b91506143a482614363565b602082019050919050565b600060208201905081810360008301526143c88161438c565b9050919050565b60006080820190506143e460008301876138a3565b6143f160208301866139a1565b6143fe60408301856137e5565b61440b60608301846137e5565b95945050505050565b7f4552433230566f7465733a20696e76616c6964206e6f6e636500000000000000600082015250565b600061444a601983613621565b915061445582614414565b602082019050919050565b600060208201905081810360008301526144798161443d565b9050919050565b7f45524332305065726d69743a206578706972656420646561646c696e65000000600082015250565b60006144b6601d83613621565b91506144c182614480565b602082019050919050565b600060208201905081810360008301526144e5816144a9565b9050919050565b600060c08201905061450160008301896138a3565b61450e60208301886139a1565b61451b60408301876139a1565b61452860608301866137e5565b61453560808301856137e5565b61454260a08301846137e5565b979650505050505050565b7f45524332305065726d69743a20696e76616c6964207369676e61747572650000600082015250565b6000614583601e83613621565b915061458e8261454d565b602082019050919050565b600060208201905081810360008301526145b281614576565b9050919050565b7f4552433230466c6173684d696e743a2077726f6e6720746f6b656e0000000000600082015250565b60006145ef601b83613621565b91506145fa826145b9565b602082019050919050565b6000602082019050818103600083015261461e816145e2565b9050919050565b7f4f776e61626c653a206e6577206f776e657220697320746865207a65726f206160008201527f6464726573730000000000000000000000000000000000000000000000000000602082015250565b6000614681602683613621565b915061468c82614625565b604082019050919050565b600060208201905081810360008301526146b081614674565b9050919050565b7f45524332303a20617070726f76652066726f6d20746865207a65726f2061646460008201527f7265737300000000000000000000000000000000000000000000000000000000602082015250565b6000614713602483613621565b915061471e826146b7565b604082019050919050565b6000602082019050818103600083015261474281614706565b9050919050565b7f45524332303a20617070726f766520746f20746865207a65726f20616464726560008201527f7373000000000000000000000000000000000000000000000000000000000000602082015250565b60006147a5602283613621565b91506147b082614749565b604082019050919050565b600060208201905081810360008301526147d481614798565b9050919050565b7f45524332303a20696e73756666696369656e7420616c6c6f77616e6365000000600082015250565b6000614811601d83613621565b915061481c826147db565b602082019050919050565b6000602082019050818103600083015261484081614804565b9050919050565b7f45524332303a207472616e736665722066726f6d20746865207a65726f20616460008201527f6472657373000000000000000000000000000000000000000000000000000000602082015250565b60006148a3602583613621565b91506148ae82614847565b604082019050919050565b600060208201905081810360008301526148d281614896565b9050919050565b7f45524332303a207472616e7366657220746f20746865207a65726f206164647260008201527f6573730000000000000000000000000000000000000000000000000000000000602082015250565b6000614935602383613621565b9150614940826148d9565b604082019050919050565b6000602082019050818103600083015261496481614928565b9050919050565b7f45524332303a207472616e7366657220616d6f756e742065786365656473206260008201527f616c616e63650000000000000000000000000000000000000000000000000000602082015250565b60006149c7602683613621565b91506149d28261496b565b604082019050919050565b600060208201905081810360008301526149f6816149ba565b9050919050565b7f4f776e61626c653a2063616c6c6572206973206e6f7420746865206f776e6572600082015250565b6000614a33602083613621565b9150614a3e826149fd565b602082019050919050565b60006020820190508181036000830152614a6281614a26565b9050919050565b6000606082019050614a7e60008301866139a1565b614a8b60208301856139a1565b614a9860408301846137e5565b949350505050565b7f53616665436173743a2076616c756520646f65736e27742066697420696e203360008201527f3220626974730000000000000000000000000000000000000000000000000000602082015250565b6000614afc602683613621565b9150614b0782614aa0565b604082019050919050565b60006020820190508181036000830152614b2b81614aef565b9050919050565b6000604082019050614b4760008301856139a1565b614b5460208301846137e5565b9392505050565b600060a082019050614b7060008301886138a3565b614b7d60208301876138a3565b614b8a60408301866138a3565b614b9760608301856137e5565b614ba460808301846139a1565b9695505050505050565b7f4e487b7100000000000000000000000000000000000000000000000000000000600052601260045260246000fd5b6000614be882613739565b9150614bf383613739565b925082614c0357614c02614bae565b5b828204905092915050565b7f5061757361626c653a206e6f7420706175736564000000000000000000000000600082015250565b6000614c44601483613621565b9150614c4f82614c0e565b602082019050919050565b60006020820190508181036000830152614c7381614c37565b9050919050565b7f4552433230566f7465733a20746f74616c20737570706c79207269736b73206f60008201527f766572666c6f77696e6720766f74657300000000000000000000000000000000602082015250565b6000614cd6603083613621565b9150614ce182614c7a565b604082019050919050565b60006020820190508181036000830152614d0581614cc9565b9050919050565b614d15816137af565b8114614d2057600080fd5b50565b600081519050614d3281614d0c565b92915050565b600060208284031215614d4e57614d4d6136d1565b5b6000614d5c84828501614d23565b91505092915050565b7f5361666545524332303a204552433230206f7065726174696f6e20646964206e60008201527f6f74207375636365656400000000000000000000000000000000000000000000602082015250565b6000614dc1602a83613621565b9150614dcc82614d65565b604082019050919050565b60006020820190508181036000830152614df081614db4565b9050919050565b6000604082019050614e0c60008301856137e5565b614e1960208301846137e5565b9392505050565b7f5061757361626c653a2070617573656400000000000000000000000000000000600082015250565b6000614e56601083613621565b9150614e6182614e20565b602082019050919050565b60006020820190508181036000830152614e8581614e49565b9050919050565b600081905092915050565b7f1901000000000000000000000000000000000000000000000000000000000000600082015250565b6000614ecd600283614e8c565b9150614ed882614e97565b600282019050919050565b6000819050919050565b614efe614ef982613899565b614ee3565b82525050565b6000614f0f82614ec0565b9150614f1b8285614eed565b602082019150614f2b8284614eed565b6020820191508190509392505050565b6000608082019050614f5060008301876138a3565b614f5d602083018661386f565b614f6a60408301856138a3565b614f7760608301846138a3565b95945050505050565b7f4e487b7100000000000000000000000000000000000000000000000000000000600052602160045260246000fd5b7f45434453413a20696e76616c6964207369676e61747572650000000000000000600082015250565b6000614fe5601883613621565b9150614ff082614faf565b602082019050919050565b6000602082019050818103600083015261501481614fd8565b9050919050565b7f45434453413a20696e76616c6964207369676e6174757265206c656e67746800600082015250565b6000615051601f83613621565b915061505c8261501b565b602082019050919050565b6000602082019050818103600083015261508081615044565b9050919050565b7f45434453413a20696e76616c6964207369676e6174757265202773272076616c60008201527f7565000000000000000000000000000000000000000000000000000000000000602082015250565b60006150e3602283613621565b91506150ee82615087565b604082019050919050565b60006020820190508181036000830152615112816150d6565b9050919050565b7f45524332303a206d696e7420746f20746865207a65726f206164647265737300600082015250565b600061514f601f83613621565b915061515a82615119565b602082019050919050565b6000602082019050818103600083015261517e81615142565b9050919050565b7f45524332303a206275726e2066726f6d20746865207a65726f2061646472657360008201527f7300000000000000000000000000000000000000000000000000000000000000602082015250565b60006151e1602183613621565b91506151ec82615185565b604082019050919050565b60006020820190508181036000830152615210816151d4565b9050919050565b7f45524332303a206275726e20616d6f756e7420657863656564732062616c616e60008201527f6365000000000000000000000000000000000000000000000000000000000000602082015250565b6000615273602283613621565b915061527e82615217565b604082019050919050565b600060208201905081810360008301526152a281615266565b9050919050565b7f53616665436173743a2076616c756520646f65736e27742066697420696e203260008201527f3234206269747300000000000000000000000000000000000000000000000000602082015250565b6000615305602783613621565b9150615310826152a9565b604082019050919050565b60006020820190508181036000830152615334816152f8565b9050919050565b7f416464726573733a20696e73756666696369656e742062616c616e636520666f60008201527f722063616c6c0000000000000000000000000000000000000000000000000000602082015250565b6000615397602683613621565b91506153a28261533b565b604082019050919050565b600060208201905081810360008301526153c68161538a565b9050919050565b600081519050919050565b600081905092915050565b60006153ee826153cd565b6153f881856153d8565b9350615408818560208601613632565b80840191505092915050565b600061542082846153e3565b915081905092915050565b7f416464726573733a2063616c6c20746f206e6f6e2d636f6e7472616374000000600082015250565b6000615461601d83613621565b915061546c8261542b565b602082019050919050565b6000602082019050818103600083015261549081615454565b905091905056fea264697066735822122040aefdb1bee3f6596e5020bbc694d4c9b0acd183d8eab384e589825d14a8bf9e64736f6c63430008090033",
  "linkReferences": {},
  "deployedLinkReferences": {}
}