{
  "_format": "hh-sol-artifact-1",
  "contractName": "SimpliSpend",
  "sourceName": "contracts/SimpliSpend.sol",
  "abi": [
    {
      "inputs": [
        {
          "internalType": "address",
          "name": "usdcAddress",
          "type": "address"
        }
      ],
      "stateMutability": "nonpayable",
      "type": "constructor"
    },
    {
      "anonymous": false,
      "inputs": [
        {
          "indexed": true,
          "internalType": "address",
          "name": "owner",
          "type": "address"
        },
        {
          "indexed": true,
          "internalType": "address",
          "name": "spender",
          "type": "address"
        },
        {
          "indexed": false,
          "internalType": "uint256",
          "name": "value",
          "type": "uint256"
        }
      ],
      "name": "Approval",
      "type": "event"
    },
    {
      "anonymous": false,
      "inputs": [
        {
          "indexed": true,
          "internalType": "address",
          "name": "previousOwner",
          "type": "address"
        },
        {
          "indexed": true,
          "internalType": "address",
          "name": "newOwner",
          "type": "address"
        }
      ],
      "name": "OwnershipTransferred",
      "type": "event"
    },
    {
      "anonymous": false,
      "inputs": [
        {
          "indexed": true,
          "internalType": "address",
          "name": "from",
          "type": "address"
        },
        {
          "indexed": true,
          "internalType": "address",
          "name": "to",
          "type": "address"
        },
        {
          "indexed": false,
          "internalType": "uint256",
          "name": "value",
          "type": "uint256"
        }
      ],
      "name": "Transfer",
      "type": "event"
    },
    {
      "inputs": [
        {
          "internalType": "address",
          "name": "owner",
          "type": "address"
        },
        {
          "internalType": "address",
          "name": "spender",
          "type": "address"
        }
      ],
      "name": "allowance",
      "outputs": [
        {
          "internalType": "uint256",
          "name": "",
          "type": "uint256"
        }
      ],
      "stateMutability": "view",
      "type": "function"
    },
    {
      "inputs": [
        {
          "internalType": "address",
          "name": "spender",
          "type": "address"
        },
        {
          "internalType": "uint256",
          "name": "amount",
          "type": "uint256"
        }
      ],
      "name": "approve",
      "outputs": [
        {
          "internalType": "bool",
          "name": "",
          "type": "bool"
        }
      ],
      "stateMutability": "nonpayable",
      "type": "function"
    },
    {
      "inputs": [
        {
          "internalType": "uint256",
          "name": "_transactionId",
          "type": "uint256"
        }
      ],
      "name": "approveTransaction",
      "outputs": [],
      "stateMutability": "nonpayable",
      "type": "function"
    },
    {
      "inputs": [
        {
          "internalType": "address",
          "name": "account",
          "type": "address"
        }
      ],
      "name": "balanceOf",
      "outputs": [
        {
          "internalType": "uint256",
          "name": "",
          "type": "uint256"
        }
      ],
      "stateMutability": "view",
      "type": "function"
    },
    {
      "inputs": [
        {
          "internalType": "uint256",
          "name": "amount",
          "type": "uint256"
        }
      ],
      "name": "burn",
      "outputs": [],
      "stateMutability": "nonpayable",
      "type": "function"
    },
    {
      "inputs": [
        {
          "internalType": "address",
          "name": "account",
          "type": "address"
        },
        {
          "internalType": "uint256",
          "name": "amount",
          "type": "uint256"
        }
      ],
      "name": "burnFrom",
      "outputs": [],
      "stateMutability": "nonpayable",
      "type": "function"
    },
    {
      "inputs": [],
      "name": "decimals",
      "outputs": [
        {
          "internalType": "uint8",
          "name": "",
          "type": "uint8"
        }
      ],
      "stateMutability": "view",
      "type": "function"
    },
    {
      "inputs": [
        {
          "internalType": "address",
          "name": "spender",
          "type": "address"
        },
        {
          "internalType": "uint256",
          "name": "subtractedValue",
          "type": "uint256"
        }
      ],
      "name": "decreaseAllowance",
      "outputs": [
        {
          "internalType": "bool",
          "name": "",
          "type": "bool"
        }
      ],
      "stateMutability": "nonpayable",
      "type": "function"
    },
    {
      "inputs": [
        {
          "internalType": "uint256",
          "name": "_transactionId",
          "type": "uint256"
        }
      ],
      "name": "denyTransaction",
      "outputs": [],
      "stateMutability": "nonpayable",
      "type": "function"
    },
    {
      "inputs": [
        {
          "internalType": "uint256",
          "name": "_amount",
          "type": "uint256"
        }
      ],
      "name": "exchangeSIMP",
      "outputs": [],
      "stateMutability": "nonpayable",
      "type": "function"
    },
    {
      "inputs": [
        {
          "internalType": "uint256",
          "name": "_amount",
          "type": "uint256"
        }
      ],
      "name": "fundUSDC",
      "outputs": [],
      "stateMutability": "nonpayable",
      "type": "function"
    },
    {
      "inputs": [],
      "name": "getTransactionsCount",
      "outputs": [
        {
          "internalType": "uint256",
          "name": "",
          "type": "uint256"
        }
      ],
      "stateMutability": "view",
      "type": "function"
    },
    {
      "inputs": [
        {
          "internalType": "address",
          "name": "spender",
          "type": "address"
        },
        {
          "internalType": "uint256",
          "name": "addedValue",
          "type": "uint256"
        }
      ],
      "name": "increaseAllowance",
      "outputs": [
        {
          "internalType": "bool",
          "name": "",
          "type": "bool"
        }
      ],
      "stateMutability": "nonpayable",
      "type": "function"
    },
    {
      "inputs": [
        {
          "internalType": "string",
          "name": "_detailsHash",
          "type": "string"
        },
        {
          "internalType": "uint256",
          "name": "_cost",
          "type": "uint256"
        }
      ],
      "name": "logTransaction",
      "outputs": [],
      "stateMutability": "nonpayable",
      "type": "function"
    },
    {
      "inputs": [
        {
          "internalType": "address",
          "name": "to",
          "type": "address"
        },
        {
          "internalType": "uint256",
          "name": "amount",
          "type": "uint256"
        }
      ],
      "name": "mint",
      "outputs": [],
      "stateMutability": "nonpayable",
      "type": "function"
    },
    {
      "inputs": [],
      "name": "name",
      "outputs": [
        {
          "internalType": "string",
          "name": "",
          "type": "string"
        }
      ],
      "stateMutability": "view",
      "type": "function"
    },
    {
      "inputs": [],
      "name": "owner",
      "outputs": [
        {
          "internalType": "address",
          "name": "",
          "type": "address"
        }
      ],
      "stateMutability": "view",
      "type": "function"
    },
    {
      "inputs": [],
      "name": "renounceOwnership",
      "outputs": [],
      "stateMutability": "nonpayable",
      "type": "function"
    },
    {
      "inputs": [],
      "name": "symbol",
      "outputs": [
        {
          "internalType": "string",
          "name": "",
          "type": "string"
        }
      ],
      "stateMutability": "view",
      "type": "function"
    },
    {
      "inputs": [],
      "name": "totalExpensed",
      "outputs": [
        {
          "internalType": "uint256",
          "name": "",
          "type": "uint256"
        }
      ],
      "stateMutability": "view",
      "type": "function"
    },
    {
      "inputs": [],
      "name": "totalSupply",
      "outputs": [
        {
          "internalType": "uint256",
          "name": "",
          "type": "uint256"
        }
      ],
      "stateMutability": "view",
      "type": "function"
    },
    {
      "inputs": [
        {
          "internalType": "uint256",
          "name": "",
          "type": "uint256"
        }
      ],
      "name": "transactions",
      "outputs": [
        {
          "internalType": "string",
          "name": "detailsHash",
          "type": "string"
        },
        {
          "internalType": "uint256",
          "name": "cost",
          "type": "uint256"
        },
        {
          "internalType": "enum SimpliSpend.TransactionStatus",
          "name": "status",
          "type": "uint8"
        },
        {
          "internalType": "address",
          "name": "user",
          "type": "address"
        }
      ],
      "stateMutability": "view",
      "type": "function"
    },
    {
      "inputs": [
        {
          "internalType": "address",
          "name": "to",
          "type": "address"
        },
        {
          "internalType": "uint256",
          "name": "amount",
          "type": "uint256"
        }
      ],
      "name": "transfer",
      "outputs": [
        {
          "internalType": "bool",
          "name": "",
          "type": "bool"
        }
      ],
      "stateMutability": "nonpayable",
      "type": "function"
    },
    {
      "inputs": [
        {
          "internalType": "address",
          "name": "from",
          "type": "address"
        },
        {
          "internalType": "address",
          "name": "to",
          "type": "address"
        },
        {
          "internalType": "uint256",
          "name": "amount",
          "type": "uint256"
        }
      ],
      "name": "transferFrom",
      "outputs": [
        {
          "internalType": "bool",
          "name": "",
          "type": "bool"
        }
      ],
      "stateMutability": "nonpayable",
      "type": "function"
    },
    {
      "inputs": [
        {
          "internalType": "address",
          "name": "newOwner",
          "type": "address"
        }
      ],
      "name": "transferOwnership",
      "outputs": [],
      "stateMutability": "nonpayable",
      "type": "function"
    },
    {
      "inputs": [],
      "name": "usdc",
      "outputs": [
        {
          "internalType": "contract IERC20",
          "name": "",
          "type": "address"
        }
      ],
      "stateMutability": "view",
      "type": "function"
    }
  ],
  "bytecode": "0x60806040523480156200001157600080fd5b506040516200334f3803806200334f833981810160405281019062000037919062000327565b6040518060400160405280600b81526020017f53696d706c695370656e640000000000000000000000000000000000000000008152506040518060400160405280600481526020017f53494d50000000000000000000000000000000000000000000000000000000008152508160039080519060200190620000bb9291906200020d565b508060049080519060200190620000d49291906200020d565b505050620000f7620000eb6200013f60201b60201c565b6200014760201b60201c565b80600660006101000a81548173ffffffffffffffffffffffffffffffffffffffff021916908373ffffffffffffffffffffffffffffffffffffffff16021790555050620003be565b600033905090565b6000600560009054906101000a900473ffffffffffffffffffffffffffffffffffffffff16905081600560006101000a81548173ffffffffffffffffffffffffffffffffffffffff021916908373ffffffffffffffffffffffffffffffffffffffff1602179055508173ffffffffffffffffffffffffffffffffffffffff168173ffffffffffffffffffffffffffffffffffffffff167f8be0079c531659141344cd1fd0a4f28419497f9722a3daafe3b4186f6b6457e060405160405180910390a35050565b8280546200021b9062000388565b90600052602060002090601f0160209004810192826200023f57600085556200028b565b82601f106200025a57805160ff19168380011785556200028b565b828001600101855582156200028b579182015b828111156200028a5782518255916020019190600101906200026d565b5b5090506200029a91906200029e565b5090565b5b80821115620002b95760008160009055506001016200029f565b5090565b600080fd5b600073ffffffffffffffffffffffffffffffffffffffff82169050919050565b6000620002ef82620002c2565b9050919050565b6200030181620002e2565b81146200030d57600080fd5b50565b6000815190506200032181620002f6565b92915050565b60006020828403121562000340576200033f620002bd565b5b6000620003508482850162000310565b91505092915050565b7f4e487b7100000000000000000000000000000000000000000000000000000000600052602260045260246000fd5b60006002820490506001821680620003a157607f821691505b60208210811415620003b857620003b762000359565b5b50919050565b612f8180620003ce6000396000f3fe608060405234801561001057600080fd5b506004361061018e5760003560e01c8063715018a6116100de5780639ace38c211610097578063ae94882011610071578063ae94882014610486578063c8e0e804146104a2578063dd62ed3e146104c0578063f2fde38b146104f05761018e565b80639ace38c2146103f3578063a457c2d714610426578063a9059cbb146104565761018e565b8063715018a61461035957806371a1c5d81461036357806379cc67901461037f5780638368074c1461039b5780638da5cb5b146103b757806395d89b41146103d55761018e565b8063395093511161014b57806342966c681161012557806342966c68146102d357806347c63733146102ef578063578cb8f91461030b57806370a08231146103295761018e565b806339509351146102695780633e413bee1461029957806340c10f19146102b75761018e565b806306fdde0314610193578063095ea7b3146101b157806318160ddd146101e157806323b872dd146101ff578063242232d11461022f578063313ce5671461024b575b600080fd5b61019b61050c565b6040516101a89190611db1565b60405180910390f35b6101cb60048036038101906101c69190611e7b565b61059e565b6040516101d89190611ed6565b60405180910390f35b6101e96105c1565b6040516101f69190611f00565b60405180910390f35b61021960048036038101906102149190611f1b565b6105cb565b6040516102269190611ed6565b60405180910390f35b61024960048036038101906102449190611f6e565b6105fa565b005b610253610703565b6040516102609190611fb7565b60405180910390f35b610283600480360381019061027e9190611e7b565b61070c565b6040516102909190611ed6565b60405180910390f35b6102a1610743565b6040516102ae9190612031565b60405180910390f35b6102d160048036038101906102cc9190611e7b565b610769565b005b6102ed60048036038101906102e89190611f6e565b61077f565b005b61030960048036038101906103049190611f6e565b610793565b005b610313610807565b6040516103209190611f00565b60405180910390f35b610343600480360381019061033e919061204c565b610814565b6040516103509190611f00565b60405180910390f35b61036161085c565b005b61037d60048036038101906103789190611f6e565b610870565b005b61039960048036038101906103949190611e7b565b610947565b005b6103b560048036038101906103b09190611f6e565b610967565b005b6103bf610af5565b6040516103cc9190612088565b60405180910390f35b6103dd610b1f565b6040516103ea9190611db1565b60405180910390f35b61040d60048036038101906104089190611f6e565b610bb1565b60405161041d949392919061211a565b60405180910390f35b610440600480360381019061043b9190611e7b565b610ca6565b60405161044d9190611ed6565b60405180910390f35b610470600480360381019061046b9190611e7b565b610d1d565b60405161047d9190611ed6565b60405180910390f35b6104a0600480360381019061049b919061229b565b610d40565b005b6104aa610e59565b6040516104b79190611f00565b60405180910390f35b6104da60048036038101906104d591906122f7565b610e5f565b6040516104e79190611f00565b60405180910390f35b61050a6004803603810190610505919061204c565b610ee6565b005b60606003805461051b90612366565b80601f016020809104026020016040519081016040528092919081815260200182805461054790612366565b80156105945780601f1061056957610100808354040283529160200191610594565b820191906000526020600020905b81548152906001019060200180831161057757829003601f168201915b5050505050905090565b6000806105a9610f6a565b90506105b6818585610f72565b600191505092915050565b6000600254905090565b6000806105d6610f6a565b90506105e385828561113d565b6105ee8585856111c9565b60019150509392505050565b610602611441565b60006008828154811061061857610617612398565b5b906000526020600020906003020190506000600281111561063c5761063b6120a3565b5b8160020160009054906101000a900460ff1660028111156106605761065f6120a3565b5b146106a0576040517f08c379a000000000000000000000000000000000000000000000000000000000815260040161069790612413565b60405180910390fd5b60018160020160006101000a81548160ff021916908360028111156106c8576106c76120a3565b5b02179055506106ff8160020160019054906101000a900473ffffffffffffffffffffffffffffffffffffffff1682600101546114bf565b5050565b60006012905090565b600080610717610f6a565b90506107388185856107298589610e5f565b6107339190612462565b610f72565b600191505092915050565b600660009054906101000a900473ffffffffffffffffffffffffffffffffffffffff1681565b610771611441565b61077b82826114bf565b5050565b61079061078a610f6a565b826114cd565b50565b600081116107d6576040517f08c379a00000000000000000000000000000000000000000000000000000000081526004016107cd90612504565b60405180910390fd5b610804600660009054906101000a900473ffffffffffffffffffffffffffffffffffffffff163330846114db565b50565b6000600880549050905090565b60008060008373ffffffffffffffffffffffffffffffffffffffff1673ffffffffffffffffffffffffffffffffffffffff168152602001908152602001600020549050919050565b610864611441565b61086e6000611564565b565b610878611441565b60006008828154811061088e5761088d612398565b5b90600052602060002090600302019050600060028111156108b2576108b16120a3565b5b8160020160009054906101000a900460ff1660028111156108d6576108d56120a3565b5b14610916576040517f08c379a000000000000000000000000000000000000000000000000000000000815260040161090d90612413565b60405180910390fd5b60028160020160006101000a81548160ff0219169083600281111561093e5761093d6120a3565b5b02179055505050565b61095982610953610f6a565b8361113d565b61096382826114cd565b5050565b600081116109aa576040517f08c379a00000000000000000000000000000000000000000000000000000000081526004016109a190612570565b60405180910390fd5b80600660009054906101000a900473ffffffffffffffffffffffffffffffffffffffff1673ffffffffffffffffffffffffffffffffffffffff166370a08231306040518263ffffffff1660e01b8152600401610a069190612088565b60206040518083038186803b158015610a1e57600080fd5b505afa158015610a32573d6000803e3d6000fd5b505050506040513d601f19601f82011682018060405250810190610a5691906125a5565b1015610a97576040517f08c379a0000000000000000000000000000000000000000000000000000000008152600401610a8e9061261e565b60405180910390fd5b610ac4600660009054906101000a900473ffffffffffffffffffffffffffffffffffffffff16338361162a565b610acf3330836111c9565b610ad930826114cd565b8060076000828254610aeb9190612462565b9250508190555050565b6000600560009054906101000a900473ffffffffffffffffffffffffffffffffffffffff16905090565b606060048054610b2e90612366565b80601f0160208091040260200160405190810160405280929190818152602001828054610b5a90612366565b8015610ba75780601f10610b7c57610100808354040283529160200191610ba7565b820191906000526020600020905b815481529060010190602001808311610b8a57829003601f168201915b5050505050905090565b60088181548110610bc157600080fd5b9060005260206000209060030201600091509050806000018054610be490612366565b80601f0160208091040260200160405190810160405280929190818152602001828054610c1090612366565b8015610c5d5780601f10610c3257610100808354040283529160200191610c5d565b820191906000526020600020905b815481529060010190602001808311610c4057829003601f168201915b5050505050908060010154908060020160009054906101000a900460ff16908060020160019054906101000a900473ffffffffffffffffffffffffffffffffffffffff16905084565b600080610cb1610f6a565b90506000610cbf8286610e5f565b905083811015610d04576040517f08c379a0000000000000000000000000000000000000000000000000000000008152600401610cfb906126b0565b60405180910390fd5b610d118286868403610f72565b60019250505092915050565b600080610d28610f6a565b9050610d358185856111c9565b600191505092915050565b6008604051806080016040528084815260200183815260200160006002811115610d6d57610d6c6120a3565b5b81526020013373ffffffffffffffffffffffffffffffffffffffff1681525090806001815401808255809150506001900390600052602060002090600302016000909190919091506000820151816000019080519060200190610dd1929190611c75565b506020820151816001015560408201518160020160006101000a81548160ff02191690836002811115610e0757610e066120a3565b5b021790555060608201518160020160016101000a81548173ffffffffffffffffffffffffffffffffffffffff021916908373ffffffffffffffffffffffffffffffffffffffff16021790555050505050565b60075481565b6000600160008473ffffffffffffffffffffffffffffffffffffffff1673ffffffffffffffffffffffffffffffffffffffff16815260200190815260200160002060008373ffffffffffffffffffffffffffffffffffffffff1673ffffffffffffffffffffffffffffffffffffffff16815260200190815260200160002054905092915050565b610eee611441565b600073ffffffffffffffffffffffffffffffffffffffff168173ffffffffffffffffffffffffffffffffffffffff161415610f5e576040517f08c379a0000000000000000000000000000000000000000000000000000000008152600401610f5590612742565b60405180910390fd5b610f6781611564565b50565b600033905090565b600073ffffffffffffffffffffffffffffffffffffffff168373ffffffffffffffffffffffffffffffffffffffff161415610fe2576040517f08c379a0000000000000000000000000000000000000000000000000000000008152600401610fd9906127d4565b60405180910390fd5b600073ffffffffffffffffffffffffffffffffffffffff168273ffffffffffffffffffffffffffffffffffffffff161415611052576040517f08c379a000000000000000000000000000000000000000000000000000000000815260040161104990612866565b60405180910390fd5b80600160008573ffffffffffffffffffffffffffffffffffffffff1673ffffffffffffffffffffffffffffffffffffffff16815260200190815260200160002060008473ffffffffffffffffffffffffffffffffffffffff1673ffffffffffffffffffffffffffffffffffffffff168152602001908152602001600020819055508173ffffffffffffffffffffffffffffffffffffffff168373ffffffffffffffffffffffffffffffffffffffff167f8c5be1e5ebec7d5bd14f71427d1e84f3dd0314c0f7b2291e5b200ac8c7c3b925836040516111309190611f00565b60405180910390a3505050565b60006111498484610e5f565b90507fffffffffffffffffffffffffffffffffffffffffffffffffffffffffffffffff81146111c357818110156111b5576040517f08c379a00000000000000000000000000000000000000000000000000000000081526004016111ac906128d2565b60405180910390fd5b6111c28484848403610f72565b5b50505050565b600073ffffffffffffffffffffffffffffffffffffffff168373ffffffffffffffffffffffffffffffffffffffff161415611239576040517f08c379a000000000000000000000000000000000000000000000000000000000815260040161123090612964565b60405180910390fd5b600073ffffffffffffffffffffffffffffffffffffffff168273ffffffffffffffffffffffffffffffffffffffff1614156112a9576040517f08c379a00000000000000000000000000000000000000000000000000000000081526004016112a0906129f6565b60405180910390fd5b6112b48383836116b0565b60008060008573ffffffffffffffffffffffffffffffffffffffff1673ffffffffffffffffffffffffffffffffffffffff1681526020019081526020016000205490508181101561133a576040517f08c379a000000000000000000000000000000000000000000000000000000000815260040161133190612a88565b60405180910390fd5b8181036000808673ffffffffffffffffffffffffffffffffffffffff1673ffffffffffffffffffffffffffffffffffffffff16815260200190815260200160002081905550816000808573ffffffffffffffffffffffffffffffffffffffff1673ffffffffffffffffffffffffffffffffffffffff168152602001908152602001600020600082825401925050819055508273ffffffffffffffffffffffffffffffffffffffff168473ffffffffffffffffffffffffffffffffffffffff167fddf252ad1be2c89b69c2b068fc378daa952ba7f163c4a11628f55a4df523b3ef846040516114289190611f00565b60405180910390a361143b8484846116b5565b50505050565b611449610f6a565b73ffffffffffffffffffffffffffffffffffffffff16611467610af5565b73ffffffffffffffffffffffffffffffffffffffff16146114bd576040517f08c379a00000000000000000000000000000000000000000000000000000000081526004016114b490612af4565b60405180910390fd5b565b6114c982826116ba565b5050565b6114d78282611811565b5050565b61155e846323b872dd60e01b8585856040516024016114fc93929190612b14565b604051602081830303815290604052907bffffffffffffffffffffffffffffffffffffffffffffffffffffffff19166020820180517bffffffffffffffffffffffffffffffffffffffffffffffffffffffff83818316178352505050506119df565b50505050565b6000600560009054906101000a900473ffffffffffffffffffffffffffffffffffffffff16905081600560006101000a81548173ffffffffffffffffffffffffffffffffffffffff021916908373ffffffffffffffffffffffffffffffffffffffff1602179055508173ffffffffffffffffffffffffffffffffffffffff168173ffffffffffffffffffffffffffffffffffffffff167f8be0079c531659141344cd1fd0a4f28419497f9722a3daafe3b4186f6b6457e060405160405180910390a35050565b6116ab8363a9059cbb60e01b8484604051602401611649929190612b4b565b604051602081830303815290604052907bffffffffffffffffffffffffffffffffffffffffffffffffffffffff19166020820180517bffffffffffffffffffffffffffffffffffffffffffffffffffffffff83818316178352505050506119df565b505050565b505050565b505050565b600073ffffffffffffffffffffffffffffffffffffffff168273ffffffffffffffffffffffffffffffffffffffff16141561172a576040517f08c379a000000000000000000000000000000000000000000000000000000000815260040161172190612bc0565b60405180910390fd5b611736600083836116b0565b80600260008282546117489190612462565b92505081905550806000808473ffffffffffffffffffffffffffffffffffffffff1673ffffffffffffffffffffffffffffffffffffffff168152602001908152602001600020600082825401925050819055508173ffffffffffffffffffffffffffffffffffffffff16600073ffffffffffffffffffffffffffffffffffffffff167fddf252ad1be2c89b69c2b068fc378daa952ba7f163c4a11628f55a4df523b3ef836040516117f99190611f00565b60405180910390a361180d600083836116b5565b5050565b600073ffffffffffffffffffffffffffffffffffffffff168273ffffffffffffffffffffffffffffffffffffffff161415611881576040517f08c379a000000000000000000000000000000000000000000000000000000000815260040161187890612c52565b60405180910390fd5b61188d826000836116b0565b60008060008473ffffffffffffffffffffffffffffffffffffffff1673ffffffffffffffffffffffffffffffffffffffff16815260200190815260200160002054905081811015611913576040517f08c379a000000000000000000000000000000000000000000000000000000000815260040161190a90612ce4565b60405180910390fd5b8181036000808573ffffffffffffffffffffffffffffffffffffffff1673ffffffffffffffffffffffffffffffffffffffff1681526020019081526020016000208190555081600260008282540392505081905550600073ffffffffffffffffffffffffffffffffffffffff168373ffffffffffffffffffffffffffffffffffffffff167fddf252ad1be2c89b69c2b068fc378daa952ba7f163c4a11628f55a4df523b3ef846040516119c69190611f00565b60405180910390a36119da836000846116b5565b505050565b6000611a41826040518060400160405280602081526020017f5361666545524332303a206c6f772d6c6576656c2063616c6c206661696c65648152508573ffffffffffffffffffffffffffffffffffffffff16611aa79092919063ffffffff16565b9050600081511480611a63575080806020019051810190611a629190612d30565b5b611aa2576040517f08c379a0000000000000000000000000000000000000000000000000000000008152600401611a9990612dcf565b60405180910390fd5b505050565b6060611ab68484600085611abf565b90509392505050565b606082471015611b04576040517f08c379a0000000000000000000000000000000000000000000000000000000008152600401611afb90612e61565b60405180910390fd5b6000808673ffffffffffffffffffffffffffffffffffffffff168587604051611b2d9190612ec8565b60006040518083038185875af1925050503d8060008114611b6a576040519150601f19603f3d011682016040523d82523d6000602084013e611b6f565b606091505b5091509150611b8087838387611b8c565b92505050949350505050565b60608315611bef57600083511415611be757611ba785611c02565b611be6576040517f08c379a0000000000000000000000000000000000000000000000000000000008152600401611bdd90612f2b565b60405180910390fd5b5b829050611bfa565b611bf98383611c25565b5b949350505050565b6000808273ffffffffffffffffffffffffffffffffffffffff163b119050919050565b600082511115611c385781518083602001fd5b806040517f08c379a0000000000000000000000000000000000000000000000000000000008152600401611c6c9190611db1565b60405180910390fd5b828054611c8190612366565b90600052602060002090601f016020900481019282611ca35760008555611cea565b82601f10611cbc57805160ff1916838001178555611cea565b82800160010185558215611cea579182015b82811115611ce9578251825591602001919060010190611cce565b5b509050611cf79190611cfb565b5090565b5b80821115611d14576000816000905550600101611cfc565b5090565b600081519050919050565b600082825260208201905092915050565b60005b83811015611d52578082015181840152602081019050611d37565b83811115611d61576000848401525b50505050565b6000601f19601f8301169050919050565b6000611d8382611d18565b611d8d8185611d23565b9350611d9d818560208601611d34565b611da681611d67565b840191505092915050565b60006020820190508181036000830152611dcb8184611d78565b905092915050565b6000604051905090565b600080fd5b600080fd5b600073ffffffffffffffffffffffffffffffffffffffff82169050919050565b6000611e1282611de7565b9050919050565b611e2281611e07565b8114611e2d57600080fd5b50565b600081359050611e3f81611e19565b92915050565b6000819050919050565b611e5881611e45565b8114611e6357600080fd5b50565b600081359050611e7581611e4f565b92915050565b60008060408385031215611e9257611e91611ddd565b5b6000611ea085828601611e30565b9250506020611eb185828601611e66565b9150509250929050565b60008115159050919050565b611ed081611ebb565b82525050565b6000602082019050611eeb6000830184611ec7565b92915050565b611efa81611e45565b82525050565b6000602082019050611f156000830184611ef1565b92915050565b600080600060608486031215611f3457611f33611ddd565b5b6000611f4286828701611e30565b9350506020611f5386828701611e30565b9250506040611f6486828701611e66565b9150509250925092565b600060208284031215611f8457611f83611ddd565b5b6000611f9284828501611e66565b91505092915050565b600060ff82169050919050565b611fb181611f9b565b82525050565b6000602082019050611fcc6000830184611fa8565b92915050565b6000819050919050565b6000611ff7611ff2611fed84611de7565b611fd2565b611de7565b9050919050565b600061200982611fdc565b9050919050565b600061201b82611ffe565b9050919050565b61202b81612010565b82525050565b60006020820190506120466000830184612022565b92915050565b60006020828403121561206257612061611ddd565b5b600061207084828501611e30565b91505092915050565b61208281611e07565b82525050565b600060208201905061209d6000830184612079565b92915050565b7f4e487b7100000000000000000000000000000000000000000000000000000000600052602160045260246000fd5b600381106120e3576120e26120a3565b5b50565b60008190506120f4826120d2565b919050565b6000612104826120e6565b9050919050565b612114816120f9565b82525050565b600060808201905081810360008301526121348187611d78565b90506121436020830186611ef1565b612150604083018561210b565b61215d6060830184612079565b95945050505050565b600080fd5b600080fd5b7f4e487b7100000000000000000000000000000000000000000000000000000000600052604160045260246000fd5b6121a882611d67565b810181811067ffffffffffffffff821117156121c7576121c6612170565b5b80604052505050565b60006121da611dd3565b90506121e6828261219f565b919050565b600067ffffffffffffffff82111561220657612205612170565b5b61220f82611d67565b9050602081019050919050565b82818337600083830152505050565b600061223e612239846121eb565b6121d0565b90508281526020810184848401111561225a5761225961216b565b5b61226584828561221c565b509392505050565b600082601f83011261228257612281612166565b5b813561229284826020860161222b565b91505092915050565b600080604083850312156122b2576122b1611ddd565b5b600083013567ffffffffffffffff8111156122d0576122cf611de2565b5b6122dc8582860161226d565b92505060206122ed85828601611e66565b9150509250929050565b6000806040838503121561230e5761230d611ddd565b5b600061231c85828601611e30565b925050602061232d85828601611e30565b9150509250929050565b7f4e487b7100000000000000000000000000000000000000000000000000000000600052602260045260246000fd5b6000600282049050600182168061237e57607f821691505b6020821081141561239257612391612337565b5b50919050565b7f4e487b7100000000000000000000000000000000000000000000000000000000600052603260045260246000fd5b7f5472616e73616374696f6e206973206e6f742050656e64696e67000000000000600082015250565b60006123fd601a83611d23565b9150612408826123c7565b602082019050919050565b6000602082019050818103600083015261242c816123f0565b9050919050565b7f4e487b7100000000000000000000000000000000000000000000000000000000600052601160045260246000fd5b600061246d82611e45565b915061247883611e45565b9250827fffffffffffffffffffffffffffffffffffffffffffffffffffffffffffffffff038211156124ad576124ac612433565b5b828201905092915050565b7f6465706f73697420616d6f756e742073686f756c64206265203e203000000000600082015250565b60006124ee601c83611d23565b91506124f9826124b8565b602082019050919050565b6000602082019050818103600083015261251d816124e1565b9050919050565b7f65786368616e676520616d6f756e742073686f756c64206265203e2030000000600082015250565b600061255a601d83611d23565b915061256582612524565b602082019050919050565b600060208201905081810360008301526125898161254d565b9050919050565b60008151905061259f81611e4f565b92915050565b6000602082840312156125bb576125ba611ddd565b5b60006125c984828501612590565b91505092915050565b7f4e6f7420656e6f756768205553444320696e20636f6e74726163740000000000600082015250565b6000612608601b83611d23565b9150612613826125d2565b602082019050919050565b60006020820190508181036000830152612637816125fb565b9050919050565b7f45524332303a2064656372656173656420616c6c6f77616e63652062656c6f7760008201527f207a65726f000000000000000000000000000000000000000000000000000000602082015250565b600061269a602583611d23565b91506126a58261263e565b604082019050919050565b600060208201905081810360008301526126c98161268d565b9050919050565b7f4f776e61626c653a206e6577206f776e657220697320746865207a65726f206160008201527f6464726573730000000000000000000000000000000000000000000000000000602082015250565b600061272c602683611d23565b9150612737826126d0565b604082019050919050565b6000602082019050818103600083015261275b8161271f565b9050919050565b7f45524332303a20617070726f76652066726f6d20746865207a65726f2061646460008201527f7265737300000000000000000000000000000000000000000000000000000000602082015250565b60006127be602483611d23565b91506127c982612762565b604082019050919050565b600060208201905081810360008301526127ed816127b1565b9050919050565b7f45524332303a20617070726f766520746f20746865207a65726f20616464726560008201527f7373000000000000000000000000000000000000000000000000000000000000602082015250565b6000612850602283611d23565b915061285b826127f4565b604082019050919050565b6000602082019050818103600083015261287f81612843565b9050919050565b7f45524332303a20696e73756666696369656e7420616c6c6f77616e6365000000600082015250565b60006128bc601d83611d23565b91506128c782612886565b602082019050919050565b600060208201905081810360008301526128eb816128af565b9050919050565b7f45524332303a207472616e736665722066726f6d20746865207a65726f20616460008201527f6472657373000000000000000000000000000000000000000000000000000000602082015250565b600061294e602583611d23565b9150612959826128f2565b604082019050919050565b6000602082019050818103600083015261297d81612941565b9050919050565b7f45524332303a207472616e7366657220746f20746865207a65726f206164647260008201527f6573730000000000000000000000000000000000000000000000000000000000602082015250565b60006129e0602383611d23565b91506129eb82612984565b604082019050919050565b60006020820190508181036000830152612a0f816129d3565b9050919050565b7f45524332303a207472616e7366657220616d6f756e742065786365656473206260008201527f616c616e63650000000000000000000000000000000000000000000000000000602082015250565b6000612a72602683611d23565b9150612a7d82612a16565b604082019050919050565b60006020820190508181036000830152612aa181612a65565b9050919050565b7f4f776e61626c653a2063616c6c6572206973206e6f7420746865206f776e6572600082015250565b6000612ade602083611d23565b9150612ae982612aa8565b602082019050919050565b60006020820190508181036000830152612b0d81612ad1565b9050919050565b6000606082019050612b296000830186612079565b612b366020830185612079565b612b436040830184611ef1565b949350505050565b6000604082019050612b606000830185612079565b612b6d6020830184611ef1565b9392505050565b7f45524332303a206d696e7420746f20746865207a65726f206164647265737300600082015250565b6000612baa601f83611d23565b9150612bb582612b74565b602082019050919050565b60006020820190508181036000830152612bd981612b9d565b9050919050565b7f45524332303a206275726e2066726f6d20746865207a65726f2061646472657360008201527f7300000000000000000000000000000000000000000000000000000000000000602082015250565b6000612c3c602183611d23565b9150612c4782612be0565b604082019050919050565b60006020820190508181036000830152612c6b81612c2f565b9050919050565b7f45524332303a206275726e20616d6f756e7420657863656564732062616c616e60008201527f6365000000000000000000000000000000000000000000000000000000000000602082015250565b6000612cce602283611d23565b9150612cd982612c72565b604082019050919050565b60006020820190508181036000830152612cfd81612cc1565b9050919050565b612d0d81611ebb565b8114612d1857600080fd5b50565b600081519050612d2a81612d04565b92915050565b600060208284031215612d4657612d45611ddd565b5b6000612d5484828501612d1b565b91505092915050565b7f5361666545524332303a204552433230206f7065726174696f6e20646964206e60008201527f6f74207375636365656400000000000000000000000000000000000000000000602082015250565b6000612db9602a83611d23565b9150612dc482612d5d565b604082019050919050565b60006020820190508181036000830152612de881612dac565b9050919050565b7f416464726573733a20696e73756666696369656e742062616c616e636520666f60008201527f722063616c6c0000000000000000000000000000000000000000000000000000602082015250565b6000612e4b602683611d23565b9150612e5682612def565b604082019050919050565b60006020820190508181036000830152612e7a81612e3e565b9050919050565b600081519050919050565b600081905092915050565b6000612ea282612e81565b612eac8185612e8c565b9350612ebc818560208601611d34565b80840191505092915050565b6000612ed48284612e97565b915081905092915050565b7f416464726573733a2063616c6c20746f206e6f6e2d636f6e7472616374000000600082015250565b6000612f15601d83611d23565b9150612f2082612edf565b602082019050919050565b60006020820190508181036000830152612f4481612f08565b905091905056fea2646970667358221220e7e3fd2565a32757ff56634716bca534854eb4e36830b7578ac37724f3ae873464736f6c63430008090033",
  "linkReferences": {},
  "deployedLinkReferences": {}
}