{
  "_format": "hh-sol-artifact-1",
  "contractName": "SimpliSpend",
  "sourceName": "contracts/SimpliSpend.sol",
  "abi": [
    {
      "inputs": [
        {
          "internalType": "address",
          "name": "usdcAddress",
          "type": "address"
        }
      ],
      "stateMutability": "nonpayable",
      "type": "constructor"
    },
    {
      "anonymous": false,
      "inputs": [
        {
          "indexed": true,
          "internalType": "address",
          "name": "owner",
          "type": "address"
        },
        {
          "indexed": true,
          "internalType": "address",
          "name": "spender",
          "type": "address"
        },
        {
          "indexed": false,
          "internalType": "uint256",
          "name": "value",
          "type": "uint256"
        }
      ],
      "name": "Approval",
      "type": "event"
    },
    {
      "anonymous": false,
      "inputs": [
        {
          "indexed": true,
          "internalType": "address",
          "name": "previousOwner",
          "type": "address"
        },
        {
          "indexed": true,
          "internalType": "address",
          "name": "newOwner",
          "type": "address"
        }
      ],
      "name": "OwnershipTransferred",
      "type": "event"
    },
    {
      "anonymous": false,
      "inputs": [
        {
          "indexed": true,
          "internalType": "address",
          "name": "from",
          "type": "address"
        },
        {
          "indexed": true,
          "internalType": "address",
          "name": "to",
          "type": "address"
        },
        {
          "indexed": false,
          "internalType": "uint256",
          "name": "value",
          "type": "uint256"
        }
      ],
      "name": "Transfer",
      "type": "event"
    },
    {
      "inputs": [
        {
          "internalType": "address",
          "name": "owner",
          "type": "address"
        },
        {
          "internalType": "address",
          "name": "spender",
          "type": "address"
        }
      ],
      "name": "allowance",
      "outputs": [
        {
          "internalType": "uint256",
          "name": "",
          "type": "uint256"
        }
      ],
      "stateMutability": "view",
      "type": "function"
    },
    {
      "inputs": [
        {
          "internalType": "address",
          "name": "spender",
          "type": "address"
        },
        {
          "internalType": "uint256",
          "name": "amount",
          "type": "uint256"
        }
      ],
      "name": "approve",
      "outputs": [
        {
          "internalType": "bool",
          "name": "",
          "type": "bool"
        }
      ],
      "stateMutability": "nonpayable",
      "type": "function"
    },
    {
      "inputs": [
        {
          "internalType": "uint256",
          "name": "_transactionId",
          "type": "uint256"
        }
      ],
      "name": "approveTransaction",
      "outputs": [],
      "stateMutability": "nonpayable",
      "type": "function"
    },
    {
      "inputs": [
        {
          "internalType": "address",
          "name": "account",
          "type": "address"
        }
      ],
      "name": "balanceOf",
      "outputs": [
        {
          "internalType": "uint256",
          "name": "",
          "type": "uint256"
        }
      ],
      "stateMutability": "view",
      "type": "function"
    },
    {
      "inputs": [
        {
          "internalType": "uint256",
          "name": "amount",
          "type": "uint256"
        }
      ],
      "name": "burn",
      "outputs": [],
      "stateMutability": "nonpayable",
      "type": "function"
    },
    {
      "inputs": [
        {
          "internalType": "address",
          "name": "account",
          "type": "address"
        },
        {
          "internalType": "uint256",
          "name": "amount",
          "type": "uint256"
        }
      ],
      "name": "burnFrom",
      "outputs": [],
      "stateMutability": "nonpayable",
      "type": "function"
    },
    {
      "inputs": [],
      "name": "decimals",
      "outputs": [
        {
          "internalType": "uint8",
          "name": "",
          "type": "uint8"
        }
      ],
      "stateMutability": "view",
      "type": "function"
    },
    {
      "inputs": [
        {
          "internalType": "address",
          "name": "spender",
          "type": "address"
        },
        {
          "internalType": "uint256",
          "name": "subtractedValue",
          "type": "uint256"
        }
      ],
      "name": "decreaseAllowance",
      "outputs": [
        {
          "internalType": "bool",
          "name": "",
          "type": "bool"
        }
      ],
      "stateMutability": "nonpayable",
      "type": "function"
    },
    {
      "inputs": [
        {
          "internalType": "uint256",
          "name": "_transactionId",
          "type": "uint256"
        }
      ],
      "name": "denyTransaction",
      "outputs": [],
      "stateMutability": "nonpayable",
      "type": "function"
    },
    {
      "inputs": [
        {
          "internalType": "uint256",
          "name": "_amount",
          "type": "uint256"
        }
      ],
      "name": "exchangeSIMP",
      "outputs": [],
      "stateMutability": "nonpayable",
      "type": "function"
    },
    {
      "inputs": [
        {
          "internalType": "uint256",
          "name": "_amount",
          "type": "uint256"
        }
      ],
      "name": "fundUSDC",
      "outputs": [],
      "stateMutability": "nonpayable",
      "type": "function"
    },
    {
      "inputs": [
        {
          "internalType": "address",
          "name": "spender",
          "type": "address"
        },
        {
          "internalType": "uint256",
          "name": "addedValue",
          "type": "uint256"
        }
      ],
      "name": "increaseAllowance",
      "outputs": [
        {
          "internalType": "bool",
          "name": "",
          "type": "bool"
        }
      ],
      "stateMutability": "nonpayable",
      "type": "function"
    },
    {
      "inputs": [
        {
          "internalType": "string",
          "name": "_detailsHash",
          "type": "string"
        },
        {
          "internalType": "uint256",
          "name": "_cost",
          "type": "uint256"
        }
      ],
      "name": "logTransaction",
      "outputs": [],
      "stateMutability": "nonpayable",
      "type": "function"
    },
    {
      "inputs": [
        {
          "internalType": "address",
          "name": "to",
          "type": "address"
        },
        {
          "internalType": "uint256",
          "name": "amount",
          "type": "uint256"
        }
      ],
      "name": "mint",
      "outputs": [],
      "stateMutability": "nonpayable",
      "type": "function"
    },
    {
      "inputs": [],
      "name": "name",
      "outputs": [
        {
          "internalType": "string",
          "name": "",
          "type": "string"
        }
      ],
      "stateMutability": "view",
      "type": "function"
    },
    {
      "inputs": [],
      "name": "owner",
      "outputs": [
        {
          "internalType": "address",
          "name": "",
          "type": "address"
        }
      ],
      "stateMutability": "view",
      "type": "function"
    },
    {
      "inputs": [],
      "name": "renounceOwnership",
      "outputs": [],
      "stateMutability": "nonpayable",
      "type": "function"
    },
    {
      "inputs": [],
      "name": "symbol",
      "outputs": [
        {
          "internalType": "string",
          "name": "",
          "type": "string"
        }
      ],
      "stateMutability": "view",
      "type": "function"
    },
    {
      "inputs": [],
      "name": "totalSupply",
      "outputs": [
        {
          "internalType": "uint256",
          "name": "",
          "type": "uint256"
        }
      ],
      "stateMutability": "view",
      "type": "function"
    },
    {
      "inputs": [
        {
          "internalType": "uint256",
          "name": "",
          "type": "uint256"
        }
      ],
      "name": "transactions",
      "outputs": [
        {
          "internalType": "string",
          "name": "detailsHash",
          "type": "string"
        },
        {
          "internalType": "uint256",
          "name": "cost",
          "type": "uint256"
        },
        {
          "internalType": "enum SimpliSpend.TransactionStatus",
          "name": "status",
          "type": "uint8"
        },
        {
          "internalType": "address",
          "name": "user",
          "type": "address"
        }
      ],
      "stateMutability": "view",
      "type": "function"
    },
    {
      "inputs": [
        {
          "internalType": "address",
          "name": "to",
          "type": "address"
        },
        {
          "internalType": "uint256",
          "name": "amount",
          "type": "uint256"
        }
      ],
      "name": "transfer",
      "outputs": [
        {
          "internalType": "bool",
          "name": "",
          "type": "bool"
        }
      ],
      "stateMutability": "nonpayable",
      "type": "function"
    },
    {
      "inputs": [
        {
          "internalType": "address",
          "name": "from",
          "type": "address"
        },
        {
          "internalType": "address",
          "name": "to",
          "type": "address"
        },
        {
          "internalType": "uint256",
          "name": "amount",
          "type": "uint256"
        }
      ],
      "name": "transferFrom",
      "outputs": [
        {
          "internalType": "bool",
          "name": "",
          "type": "bool"
        }
      ],
      "stateMutability": "nonpayable",
      "type": "function"
    },
    {
      "inputs": [
        {
          "internalType": "address",
          "name": "newOwner",
          "type": "address"
        }
      ],
      "name": "transferOwnership",
      "outputs": [],
      "stateMutability": "nonpayable",
      "type": "function"
    },
    {
      "inputs": [],
      "name": "usdc",
      "outputs": [
        {
          "internalType": "contract IERC20",
          "name": "",
          "type": "address"
        }
      ],
      "stateMutability": "view",
      "type": "function"
    }
  ],
  "bytecode": "0x60806040523480156200001157600080fd5b50604051620032b1380380620032b1833981810160405281019062000037919062000327565b6040518060400160405280600b81526020017f53696d706c695370656e640000000000000000000000000000000000000000008152506040518060400160405280600481526020017f53494d50000000000000000000000000000000000000000000000000000000008152508160039080519060200190620000bb9291906200020d565b508060049080519060200190620000d49291906200020d565b505050620000f7620000eb6200013f60201b60201c565b6200014760201b60201c565b80600660006101000a81548173ffffffffffffffffffffffffffffffffffffffff021916908373ffffffffffffffffffffffffffffffffffffffff16021790555050620003be565b600033905090565b6000600560009054906101000a900473ffffffffffffffffffffffffffffffffffffffff16905081600560006101000a81548173ffffffffffffffffffffffffffffffffffffffff021916908373ffffffffffffffffffffffffffffffffffffffff1602179055508173ffffffffffffffffffffffffffffffffffffffff168173ffffffffffffffffffffffffffffffffffffffff167f8be0079c531659141344cd1fd0a4f28419497f9722a3daafe3b4186f6b6457e060405160405180910390a35050565b8280546200021b9062000388565b90600052602060002090601f0160209004810192826200023f57600085556200028b565b82601f106200025a57805160ff19168380011785556200028b565b828001600101855582156200028b579182015b828111156200028a5782518255916020019190600101906200026d565b5b5090506200029a91906200029e565b5090565b5b80821115620002b95760008160009055506001016200029f565b5090565b600080fd5b600073ffffffffffffffffffffffffffffffffffffffff82169050919050565b6000620002ef82620002c2565b9050919050565b6200030181620002e2565b81146200030d57600080fd5b50565b6000815190506200032181620002f6565b92915050565b60006020828403121562000340576200033f620002bd565b5b6000620003508482850162000310565b91505092915050565b7f4e487b7100000000000000000000000000000000000000000000000000000000600052602260045260246000fd5b60006002820490506001821680620003a157607f821691505b60208210811415620003b857620003b762000359565b5b50919050565b612ee380620003ce6000396000f3fe608060405234801561001057600080fd5b50600436106101585760003560e01c8063715018a6116100c35780639ace38c21161007c5780639ace38c21461039f578063a457c2d7146103d2578063a9059cbb14610402578063ae94882014610432578063dd62ed3e1461044e578063f2fde38b1461047e57610158565b8063715018a61461030557806371a1c5d81461030f57806379cc67901461032b5780638368074c146103475780638da5cb5b1461036357806395d89b411461038157610158565b8063395093511161011557806339509351146102335780633e413bee1461026357806340c10f191461028157806342966c681461029d57806347c63733146102b957806370a08231146102d557610158565b806306fdde031461015d578063095ea7b31461017b57806318160ddd146101ab57806323b872dd146101c9578063242232d1146101f9578063313ce56714610215575b600080fd5b61016561049a565b6040516101729190611d13565b60405180910390f35b61019560048036038101906101909190611ddd565b61052c565b6040516101a29190611e38565b60405180910390f35b6101b361054f565b6040516101c09190611e62565b60405180910390f35b6101e360048036038101906101de9190611e7d565b610559565b6040516101f09190611e38565b60405180910390f35b610213600480360381019061020e9190611ed0565b610588565b005b61021d610691565b60405161022a9190611f19565b60405180910390f35b61024d60048036038101906102489190611ddd565b61069a565b60405161025a9190611e38565b60405180910390f35b61026b6106d1565b6040516102789190611f93565b60405180910390f35b61029b60048036038101906102969190611ddd565b6106f7565b005b6102b760048036038101906102b29190611ed0565b61070d565b005b6102d360048036038101906102ce9190611ed0565b610721565b005b6102ef60048036038101906102ea9190611fae565b610795565b6040516102fc9190611e62565b60405180910390f35b61030d6107dd565b005b61032960048036038101906103249190611ed0565b6107f1565b005b61034560048036038101906103409190611ddd565b6108c8565b005b610361600480360381019061035c9190611ed0565b6108e8565b005b61036b610a5d565b6040516103789190611fea565b60405180910390f35b610389610a87565b6040516103969190611d13565b60405180910390f35b6103b960048036038101906103b49190611ed0565b610b19565b6040516103c9949392919061207c565b60405180910390f35b6103ec60048036038101906103e79190611ddd565b610c0e565b6040516103f99190611e38565b60405180910390f35b61041c60048036038101906104179190611ddd565b610c85565b6040516104299190611e38565b60405180910390f35b61044c600480360381019061044791906121fd565b610ca8565b005b61046860048036038101906104639190612259565b610dc1565b6040516104759190611e62565b60405180910390f35b61049860048036038101906104939190611fae565b610e48565b005b6060600380546104a9906122c8565b80601f01602080910402602001604051908101604052809291908181526020018280546104d5906122c8565b80156105225780601f106104f757610100808354040283529160200191610522565b820191906000526020600020905b81548152906001019060200180831161050557829003601f168201915b5050505050905090565b600080610537610ecc565b9050610544818585610ed4565b600191505092915050565b6000600254905090565b600080610564610ecc565b905061057185828561109f565b61057c85858561112b565b60019150509392505050565b6105906113a3565b6000600782815481106105a6576105a56122fa565b5b90600052602060002090600302019050600060028111156105ca576105c9612005565b5b8160020160009054906101000a900460ff1660028111156105ee576105ed612005565b5b1461062e576040517f08c379a000000000000000000000000000000000000000000000000000000000815260040161062590612375565b60405180910390fd5b60018160020160006101000a81548160ff0219169083600281111561065657610655612005565b5b021790555061068d8160020160019054906101000a900473ffffffffffffffffffffffffffffffffffffffff168260010154611421565b5050565b60006012905090565b6000806106a5610ecc565b90506106c68185856106b78589610dc1565b6106c191906123c4565b610ed4565b600191505092915050565b600660009054906101000a900473ffffffffffffffffffffffffffffffffffffffff1681565b6106ff6113a3565b6107098282611421565b5050565b61071e610718610ecc565b8261142f565b50565b60008111610764576040517f08c379a000000000000000000000000000000000000000000000000000000000815260040161075b90612466565b60405180910390fd5b610792600660009054906101000a900473ffffffffffffffffffffffffffffffffffffffff1633308461143d565b50565b60008060008373ffffffffffffffffffffffffffffffffffffffff1673ffffffffffffffffffffffffffffffffffffffff168152602001908152602001600020549050919050565b6107e56113a3565b6107ef60006114c6565b565b6107f96113a3565b60006007828154811061080f5761080e6122fa565b5b906000526020600020906003020190506000600281111561083357610832612005565b5b8160020160009054906101000a900460ff16600281111561085757610856612005565b5b14610897576040517f08c379a000000000000000000000000000000000000000000000000000000000815260040161088e90612375565b60405180910390fd5b60028160020160006101000a81548160ff021916908360028111156108bf576108be612005565b5b02179055505050565b6108da826108d4610ecc565b8361109f565b6108e4828261142f565b5050565b6000811161092b576040517f08c379a0000000000000000000000000000000000000000000000000000000008152600401610922906124d2565b60405180910390fd5b80600660009054906101000a900473ffffffffffffffffffffffffffffffffffffffff1673ffffffffffffffffffffffffffffffffffffffff166370a08231306040518263ffffffff1660e01b81526004016109879190611fea565b60206040518083038186803b15801561099f57600080fd5b505afa1580156109b3573d6000803e3d6000fd5b505050506040513d601f19601f820116820180604052508101906109d79190612507565b1015610a18576040517f08c379a0000000000000000000000000000000000000000000000000000000008152600401610a0f90612580565b60405180910390fd5b610a45600660009054906101000a900473ffffffffffffffffffffffffffffffffffffffff16338361158c565b610a5033308361112b565b610a5a308261142f565b50565b6000600560009054906101000a900473ffffffffffffffffffffffffffffffffffffffff16905090565b606060048054610a96906122c8565b80601f0160208091040260200160405190810160405280929190818152602001828054610ac2906122c8565b8015610b0f5780601f10610ae457610100808354040283529160200191610b0f565b820191906000526020600020905b815481529060010190602001808311610af257829003601f168201915b5050505050905090565b60078181548110610b2957600080fd5b9060005260206000209060030201600091509050806000018054610b4c906122c8565b80601f0160208091040260200160405190810160405280929190818152602001828054610b78906122c8565b8015610bc55780601f10610b9a57610100808354040283529160200191610bc5565b820191906000526020600020905b815481529060010190602001808311610ba857829003601f168201915b5050505050908060010154908060020160009054906101000a900460ff16908060020160019054906101000a900473ffffffffffffffffffffffffffffffffffffffff16905084565b600080610c19610ecc565b90506000610c278286610dc1565b905083811015610c6c576040517f08c379a0000000000000000000000000000000000000000000000000000000008152600401610c6390612612565b60405180910390fd5b610c798286868403610ed4565b60019250505092915050565b600080610c90610ecc565b9050610c9d81858561112b565b600191505092915050565b6007604051806080016040528084815260200183815260200160006002811115610cd557610cd4612005565b5b81526020013373ffffffffffffffffffffffffffffffffffffffff1681525090806001815401808255809150506001900390600052602060002090600302016000909190919091506000820151816000019080519060200190610d39929190611bd7565b506020820151816001015560408201518160020160006101000a81548160ff02191690836002811115610d6f57610d6e612005565b5b021790555060608201518160020160016101000a81548173ffffffffffffffffffffffffffffffffffffffff021916908373ffffffffffffffffffffffffffffffffffffffff16021790555050505050565b6000600160008473ffffffffffffffffffffffffffffffffffffffff1673ffffffffffffffffffffffffffffffffffffffff16815260200190815260200160002060008373ffffffffffffffffffffffffffffffffffffffff1673ffffffffffffffffffffffffffffffffffffffff16815260200190815260200160002054905092915050565b610e506113a3565b600073ffffffffffffffffffffffffffffffffffffffff168173ffffffffffffffffffffffffffffffffffffffff161415610ec0576040517f08c379a0000000000000000000000000000000000000000000000000000000008152600401610eb7906126a4565b60405180910390fd5b610ec9816114c6565b50565b600033905090565b600073ffffffffffffffffffffffffffffffffffffffff168373ffffffffffffffffffffffffffffffffffffffff161415610f44576040517f08c379a0000000000000000000000000000000000000000000000000000000008152600401610f3b90612736565b60405180910390fd5b600073ffffffffffffffffffffffffffffffffffffffff168273ffffffffffffffffffffffffffffffffffffffff161415610fb4576040517f08c379a0000000000000000000000000000000000000000000000000000000008152600401610fab906127c8565b60405180910390fd5b80600160008573ffffffffffffffffffffffffffffffffffffffff1673ffffffffffffffffffffffffffffffffffffffff16815260200190815260200160002060008473ffffffffffffffffffffffffffffffffffffffff1673ffffffffffffffffffffffffffffffffffffffff168152602001908152602001600020819055508173ffffffffffffffffffffffffffffffffffffffff168373ffffffffffffffffffffffffffffffffffffffff167f8c5be1e5ebec7d5bd14f71427d1e84f3dd0314c0f7b2291e5b200ac8c7c3b925836040516110929190611e62565b60405180910390a3505050565b60006110ab8484610dc1565b90507fffffffffffffffffffffffffffffffffffffffffffffffffffffffffffffffff81146111255781811015611117576040517f08c379a000000000000000000000000000000000000000000000000000000000815260040161110e90612834565b60405180910390fd5b6111248484848403610ed4565b5b50505050565b600073ffffffffffffffffffffffffffffffffffffffff168373ffffffffffffffffffffffffffffffffffffffff16141561119b576040517f08c379a0000000000000000000000000000000000000000000000000000000008152600401611192906128c6565b60405180910390fd5b600073ffffffffffffffffffffffffffffffffffffffff168273ffffffffffffffffffffffffffffffffffffffff16141561120b576040517f08c379a000000000000000000000000000000000000000000000000000000000815260040161120290612958565b60405180910390fd5b611216838383611612565b60008060008573ffffffffffffffffffffffffffffffffffffffff1673ffffffffffffffffffffffffffffffffffffffff1681526020019081526020016000205490508181101561129c576040517f08c379a0000000000000000000000000000000000000000000000000000000008152600401611293906129ea565b60405180910390fd5b8181036000808673ffffffffffffffffffffffffffffffffffffffff1673ffffffffffffffffffffffffffffffffffffffff16815260200190815260200160002081905550816000808573ffffffffffffffffffffffffffffffffffffffff1673ffffffffffffffffffffffffffffffffffffffff168152602001908152602001600020600082825401925050819055508273ffffffffffffffffffffffffffffffffffffffff168473ffffffffffffffffffffffffffffffffffffffff167fddf252ad1be2c89b69c2b068fc378daa952ba7f163c4a11628f55a4df523b3ef8460405161138a9190611e62565b60405180910390a361139d848484611617565b50505050565b6113ab610ecc565b73ffffffffffffffffffffffffffffffffffffffff166113c9610a5d565b73ffffffffffffffffffffffffffffffffffffffff161461141f576040517f08c379a000000000000000000000000000000000000000000000000000000000815260040161141690612a56565b60405180910390fd5b565b61142b828261161c565b5050565b6114398282611773565b5050565b6114c0846323b872dd60e01b85858560405160240161145e93929190612a76565b604051602081830303815290604052907bffffffffffffffffffffffffffffffffffffffffffffffffffffffff19166020820180517bffffffffffffffffffffffffffffffffffffffffffffffffffffffff8381831617835250505050611941565b50505050565b6000600560009054906101000a900473ffffffffffffffffffffffffffffffffffffffff16905081600560006101000a81548173ffffffffffffffffffffffffffffffffffffffff021916908373ffffffffffffffffffffffffffffffffffffffff1602179055508173ffffffffffffffffffffffffffffffffffffffff168173ffffffffffffffffffffffffffffffffffffffff167f8be0079c531659141344cd1fd0a4f28419497f9722a3daafe3b4186f6b6457e060405160405180910390a35050565b61160d8363a9059cbb60e01b84846040516024016115ab929190612aad565b604051602081830303815290604052907bffffffffffffffffffffffffffffffffffffffffffffffffffffffff19166020820180517bffffffffffffffffffffffffffffffffffffffffffffffffffffffff8381831617835250505050611941565b505050565b505050565b505050565b600073ffffffffffffffffffffffffffffffffffffffff168273ffffffffffffffffffffffffffffffffffffffff16141561168c576040517f08c379a000000000000000000000000000000000000000000000000000000000815260040161168390612b22565b60405180910390fd5b61169860008383611612565b80600260008282546116aa91906123c4565b92505081905550806000808473ffffffffffffffffffffffffffffffffffffffff1673ffffffffffffffffffffffffffffffffffffffff168152602001908152602001600020600082825401925050819055508173ffffffffffffffffffffffffffffffffffffffff16600073ffffffffffffffffffffffffffffffffffffffff167fddf252ad1be2c89b69c2b068fc378daa952ba7f163c4a11628f55a4df523b3ef8360405161175b9190611e62565b60405180910390a361176f60008383611617565b5050565b600073ffffffffffffffffffffffffffffffffffffffff168273ffffffffffffffffffffffffffffffffffffffff1614156117e3576040517f08c379a00000000000000000000000000000000000000000000000000000000081526004016117da90612bb4565b60405180910390fd5b6117ef82600083611612565b60008060008473ffffffffffffffffffffffffffffffffffffffff1673ffffffffffffffffffffffffffffffffffffffff16815260200190815260200160002054905081811015611875576040517f08c379a000000000000000000000000000000000000000000000000000000000815260040161186c90612c46565b60405180910390fd5b8181036000808573ffffffffffffffffffffffffffffffffffffffff1673ffffffffffffffffffffffffffffffffffffffff1681526020019081526020016000208190555081600260008282540392505081905550600073ffffffffffffffffffffffffffffffffffffffff168373ffffffffffffffffffffffffffffffffffffffff167fddf252ad1be2c89b69c2b068fc378daa952ba7f163c4a11628f55a4df523b3ef846040516119289190611e62565b60405180910390a361193c83600084611617565b505050565b60006119a3826040518060400160405280602081526020017f5361666545524332303a206c6f772d6c6576656c2063616c6c206661696c65648152508573ffffffffffffffffffffffffffffffffffffffff16611a099092919063ffffffff16565b90506000815114806119c55750808060200190518101906119c49190612c92565b5b611a04576040517f08c379a00000000000000000000000000000000000000000000000000000000081526004016119fb90612d31565b60405180910390fd5b505050565b6060611a188484600085611a21565b90509392505050565b606082471015611a66576040517f08c379a0000000000000000000000000000000000000000000000000000000008152600401611a5d90612dc3565b60405180910390fd5b6000808673ffffffffffffffffffffffffffffffffffffffff168587604051611a8f9190612e2a565b60006040518083038185875af1925050503d8060008114611acc576040519150601f19603f3d011682016040523d82523d6000602084013e611ad1565b606091505b5091509150611ae287838387611aee565b92505050949350505050565b60608315611b5157600083511415611b4957611b0985611b64565b611b48576040517f08c379a0000000000000000000000000000000000000000000000000000000008152600401611b3f90612e8d565b60405180910390fd5b5b829050611b5c565b611b5b8383611b87565b5b949350505050565b6000808273ffffffffffffffffffffffffffffffffffffffff163b119050919050565b600082511115611b9a5781518083602001fd5b806040517f08c379a0000000000000000000000000000000000000000000000000000000008152600401611bce9190611d13565b60405180910390fd5b828054611be3906122c8565b90600052602060002090601f016020900481019282611c055760008555611c4c565b82601f10611c1e57805160ff1916838001178555611c4c565b82800160010185558215611c4c579182015b82811115611c4b578251825591602001919060010190611c30565b5b509050611c599190611c5d565b5090565b5b80821115611c76576000816000905550600101611c5e565b5090565b600081519050919050565b600082825260208201905092915050565b60005b83811015611cb4578082015181840152602081019050611c99565b83811115611cc3576000848401525b50505050565b6000601f19601f8301169050919050565b6000611ce582611c7a565b611cef8185611c85565b9350611cff818560208601611c96565b611d0881611cc9565b840191505092915050565b60006020820190508181036000830152611d2d8184611cda565b905092915050565b6000604051905090565b600080fd5b600080fd5b600073ffffffffffffffffffffffffffffffffffffffff82169050919050565b6000611d7482611d49565b9050919050565b611d8481611d69565b8114611d8f57600080fd5b50565b600081359050611da181611d7b565b92915050565b6000819050919050565b611dba81611da7565b8114611dc557600080fd5b50565b600081359050611dd781611db1565b92915050565b60008060408385031215611df457611df3611d3f565b5b6000611e0285828601611d92565b9250506020611e1385828601611dc8565b9150509250929050565b60008115159050919050565b611e3281611e1d565b82525050565b6000602082019050611e4d6000830184611e29565b92915050565b611e5c81611da7565b82525050565b6000602082019050611e776000830184611e53565b92915050565b600080600060608486031215611e9657611e95611d3f565b5b6000611ea486828701611d92565b9350506020611eb586828701611d92565b9250506040611ec686828701611dc8565b9150509250925092565b600060208284031215611ee657611ee5611d3f565b5b6000611ef484828501611dc8565b91505092915050565b600060ff82169050919050565b611f1381611efd565b82525050565b6000602082019050611f2e6000830184611f0a565b92915050565b6000819050919050565b6000611f59611f54611f4f84611d49565b611f34565b611d49565b9050919050565b6000611f6b82611f3e565b9050919050565b6000611f7d82611f60565b9050919050565b611f8d81611f72565b82525050565b6000602082019050611fa86000830184611f84565b92915050565b600060208284031215611fc457611fc3611d3f565b5b6000611fd284828501611d92565b91505092915050565b611fe481611d69565b82525050565b6000602082019050611fff6000830184611fdb565b92915050565b7f4e487b7100000000000000000000000000000000000000000000000000000000600052602160045260246000fd5b6003811061204557612044612005565b5b50565b600081905061205682612034565b919050565b600061206682612048565b9050919050565b6120768161205b565b82525050565b600060808201905081810360008301526120968187611cda565b90506120a56020830186611e53565b6120b2604083018561206d565b6120bf6060830184611fdb565b95945050505050565b600080fd5b600080fd5b7f4e487b7100000000000000000000000000000000000000000000000000000000600052604160045260246000fd5b61210a82611cc9565b810181811067ffffffffffffffff82111715612129576121286120d2565b5b80604052505050565b600061213c611d35565b90506121488282612101565b919050565b600067ffffffffffffffff821115612168576121676120d2565b5b61217182611cc9565b9050602081019050919050565b82818337600083830152505050565b60006121a061219b8461214d565b612132565b9050828152602081018484840111156121bc576121bb6120cd565b5b6121c784828561217e565b509392505050565b600082601f8301126121e4576121e36120c8565b5b81356121f484826020860161218d565b91505092915050565b6000806040838503121561221457612213611d3f565b5b600083013567ffffffffffffffff81111561223257612231611d44565b5b61223e858286016121cf565b925050602061224f85828601611dc8565b9150509250929050565b600080604083850312156122705761226f611d3f565b5b600061227e85828601611d92565b925050602061228f85828601611d92565b9150509250929050565b7f4e487b7100000000000000000000000000000000000000000000000000000000600052602260045260246000fd5b600060028204905060018216806122e057607f821691505b602082108114156122f4576122f3612299565b5b50919050565b7f4e487b7100000000000000000000000000000000000000000000000000000000600052603260045260246000fd5b7f5472616e73616374696f6e206973206e6f742050656e64696e67000000000000600082015250565b600061235f601a83611c85565b915061236a82612329565b602082019050919050565b6000602082019050818103600083015261238e81612352565b9050919050565b7f4e487b7100000000000000000000000000000000000000000000000000000000600052601160045260246000fd5b60006123cf82611da7565b91506123da83611da7565b9250827fffffffffffffffffffffffffffffffffffffffffffffffffffffffffffffffff0382111561240f5761240e612395565b5b828201905092915050565b7f6465706f73697420616d6f756e742073686f756c64206265203e203000000000600082015250565b6000612450601c83611c85565b915061245b8261241a565b602082019050919050565b6000602082019050818103600083015261247f81612443565b9050919050565b7f65786368616e676520616d6f756e742073686f756c64206265203e2030000000600082015250565b60006124bc601d83611c85565b91506124c782612486565b602082019050919050565b600060208201905081810360008301526124eb816124af565b9050919050565b60008151905061250181611db1565b92915050565b60006020828403121561251d5761251c611d3f565b5b600061252b848285016124f2565b91505092915050565b7f4e6f7420656e6f756768205553444320696e20636f6e74726163740000000000600082015250565b600061256a601b83611c85565b915061257582612534565b602082019050919050565b600060208201905081810360008301526125998161255d565b9050919050565b7f45524332303a2064656372656173656420616c6c6f77616e63652062656c6f7760008201527f207a65726f000000000000000000000000000000000000000000000000000000602082015250565b60006125fc602583611c85565b9150612607826125a0565b604082019050919050565b6000602082019050818103600083015261262b816125ef565b9050919050565b7f4f776e61626c653a206e6577206f776e657220697320746865207a65726f206160008201527f6464726573730000000000000000000000000000000000000000000000000000602082015250565b600061268e602683611c85565b915061269982612632565b604082019050919050565b600060208201905081810360008301526126bd81612681565b9050919050565b7f45524332303a20617070726f76652066726f6d20746865207a65726f2061646460008201527f7265737300000000000000000000000000000000000000000000000000000000602082015250565b6000612720602483611c85565b915061272b826126c4565b604082019050919050565b6000602082019050818103600083015261274f81612713565b9050919050565b7f45524332303a20617070726f766520746f20746865207a65726f20616464726560008201527f7373000000000000000000000000000000000000000000000000000000000000602082015250565b60006127b2602283611c85565b91506127bd82612756565b604082019050919050565b600060208201905081810360008301526127e1816127a5565b9050919050565b7f45524332303a20696e73756666696369656e7420616c6c6f77616e6365000000600082015250565b600061281e601d83611c85565b9150612829826127e8565b602082019050919050565b6000602082019050818103600083015261284d81612811565b9050919050565b7f45524332303a207472616e736665722066726f6d20746865207a65726f20616460008201527f6472657373000000000000000000000000000000000000000000000000000000602082015250565b60006128b0602583611c85565b91506128bb82612854565b604082019050919050565b600060208201905081810360008301526128df816128a3565b9050919050565b7f45524332303a207472616e7366657220746f20746865207a65726f206164647260008201527f6573730000000000000000000000000000000000000000000000000000000000602082015250565b6000612942602383611c85565b915061294d826128e6565b604082019050919050565b6000602082019050818103600083015261297181612935565b9050919050565b7f45524332303a207472616e7366657220616d6f756e742065786365656473206260008201527f616c616e63650000000000000000000000000000000000000000000000000000602082015250565b60006129d4602683611c85565b91506129df82612978565b604082019050919050565b60006020820190508181036000830152612a03816129c7565b9050919050565b7f4f776e61626c653a2063616c6c6572206973206e6f7420746865206f776e6572600082015250565b6000612a40602083611c85565b9150612a4b82612a0a565b602082019050919050565b60006020820190508181036000830152612a6f81612a33565b9050919050565b6000606082019050612a8b6000830186611fdb565b612a986020830185611fdb565b612aa56040830184611e53565b949350505050565b6000604082019050612ac26000830185611fdb565b612acf6020830184611e53565b9392505050565b7f45524332303a206d696e7420746f20746865207a65726f206164647265737300600082015250565b6000612b0c601f83611c85565b9150612b1782612ad6565b602082019050919050565b60006020820190508181036000830152612b3b81612aff565b9050919050565b7f45524332303a206275726e2066726f6d20746865207a65726f2061646472657360008201527f7300000000000000000000000000000000000000000000000000000000000000602082015250565b6000612b9e602183611c85565b9150612ba982612b42565b604082019050919050565b60006020820190508181036000830152612bcd81612b91565b9050919050565b7f45524332303a206275726e20616d6f756e7420657863656564732062616c616e60008201527f6365000000000000000000000000000000000000000000000000000000000000602082015250565b6000612c30602283611c85565b9150612c3b82612bd4565b604082019050919050565b60006020820190508181036000830152612c5f81612c23565b9050919050565b612c6f81611e1d565b8114612c7a57600080fd5b50565b600081519050612c8c81612c66565b92915050565b600060208284031215612ca857612ca7611d3f565b5b6000612cb684828501612c7d565b91505092915050565b7f5361666545524332303a204552433230206f7065726174696f6e20646964206e60008201527f6f74207375636365656400000000000000000000000000000000000000000000602082015250565b6000612d1b602a83611c85565b9150612d2682612cbf565b604082019050919050565b60006020820190508181036000830152612d4a81612d0e565b9050919050565b7f416464726573733a20696e73756666696369656e742062616c616e636520666f60008201527f722063616c6c0000000000000000000000000000000000000000000000000000602082015250565b6000612dad602683611c85565b9150612db882612d51565b604082019050919050565b60006020820190508181036000830152612ddc81612da0565b9050919050565b600081519050919050565b600081905092915050565b6000612e0482612de3565b612e0e8185612dee565b9350612e1e818560208601611c96565b80840191505092915050565b6000612e368284612df9565b915081905092915050565b7f416464726573733a2063616c6c20746f206e6f6e2d636f6e7472616374000000600082015250565b6000612e77601d83611c85565b9150612e8282612e41565b602082019050919050565b60006020820190508181036000830152612ea681612e6a565b905091905056fea26469706673582212206a99161223c54a049d85d9a89daf2cd5fafcd076101068518b2b58dc7cbfad2664736f6c63430008090033",
  "linkReferences": {},
  "deployedLinkReferences": {}
}