{
  "_format": "hh-sol-artifact-1",
  "contractName": "SimpliSpend",
  "sourceName": "contracts/SimpliSpend.sol",
  "abi": [
    {
      "inputs": [
        {
          "internalType": "address",
          "name": "usdcAddress",
          "type": "address"
        }
      ],
      "stateMutability": "nonpayable",
      "type": "constructor"
    },
    {
      "anonymous": false,
      "inputs": [
        {
          "indexed": true,
          "internalType": "address",
          "name": "owner",
          "type": "address"
        },
        {
          "indexed": true,
          "internalType": "address",
          "name": "spender",
          "type": "address"
        },
        {
          "indexed": false,
          "internalType": "uint256",
          "name": "value",
          "type": "uint256"
        }
      ],
      "name": "Approval",
      "type": "event"
    },
    {
      "anonymous": false,
      "inputs": [
        {
          "indexed": true,
          "internalType": "address",
          "name": "previousOwner",
          "type": "address"
        },
        {
          "indexed": true,
          "internalType": "address",
          "name": "newOwner",
          "type": "address"
        }
      ],
      "name": "OwnershipTransferred",
      "type": "event"
    },
    {
      "anonymous": false,
      "inputs": [
        {
          "indexed": true,
          "internalType": "address",
          "name": "from",
          "type": "address"
        },
        {
          "indexed": true,
          "internalType": "address",
          "name": "to",
          "type": "address"
        },
        {
          "indexed": false,
          "internalType": "uint256",
          "name": "value",
          "type": "uint256"
        }
      ],
      "name": "Transfer",
      "type": "event"
    },
    {
      "inputs": [
        {
          "internalType": "address",
          "name": "owner",
          "type": "address"
        },
        {
          "internalType": "address",
          "name": "spender",
          "type": "address"
        }
      ],
      "name": "allowance",
      "outputs": [
        {
          "internalType": "uint256",
          "name": "",
          "type": "uint256"
        }
      ],
      "stateMutability": "view",
      "type": "function"
    },
    {
      "inputs": [
        {
          "internalType": "address",
          "name": "spender",
          "type": "address"
        },
        {
          "internalType": "uint256",
          "name": "amount",
          "type": "uint256"
        }
      ],
      "name": "approve",
      "outputs": [
        {
          "internalType": "bool",
          "name": "",
          "type": "bool"
        }
      ],
      "stateMutability": "nonpayable",
      "type": "function"
    },
    {
      "inputs": [
        {
          "internalType": "uint256",
          "name": "_transactionId",
          "type": "uint256"
        }
      ],
      "name": "approveTransaction",
      "outputs": [],
      "stateMutability": "nonpayable",
      "type": "function"
    },
    {
      "inputs": [
        {
          "internalType": "address",
          "name": "account",
          "type": "address"
        }
      ],
      "name": "balanceOf",
      "outputs": [
        {
          "internalType": "uint256",
          "name": "",
          "type": "uint256"
        }
      ],
      "stateMutability": "view",
      "type": "function"
    },
    {
      "inputs": [
        {
          "internalType": "uint256",
          "name": "amount",
          "type": "uint256"
        }
      ],
      "name": "burn",
      "outputs": [],
      "stateMutability": "nonpayable",
      "type": "function"
    },
    {
      "inputs": [
        {
          "internalType": "address",
          "name": "account",
          "type": "address"
        },
        {
          "internalType": "uint256",
          "name": "amount",
          "type": "uint256"
        }
      ],
      "name": "burnFrom",
      "outputs": [],
      "stateMutability": "nonpayable",
      "type": "function"
    },
    {
      "inputs": [],
      "name": "decimals",
      "outputs": [
        {
          "internalType": "uint8",
          "name": "",
          "type": "uint8"
        }
      ],
      "stateMutability": "view",
      "type": "function"
    },
    {
      "inputs": [
        {
          "internalType": "address",
          "name": "spender",
          "type": "address"
        },
        {
          "internalType": "uint256",
          "name": "subtractedValue",
          "type": "uint256"
        }
      ],
      "name": "decreaseAllowance",
      "outputs": [
        {
          "internalType": "bool",
          "name": "",
          "type": "bool"
        }
      ],
      "stateMutability": "nonpayable",
      "type": "function"
    },
    {
      "inputs": [
        {
          "internalType": "uint256",
          "name": "_transactionId",
          "type": "uint256"
        }
      ],
      "name": "denyTransaction",
      "outputs": [],
      "stateMutability": "nonpayable",
      "type": "function"
    },
    {
      "inputs": [
        {
          "internalType": "uint256",
          "name": "_amount",
          "type": "uint256"
        }
      ],
      "name": "exchangeSIMP",
      "outputs": [],
      "stateMutability": "nonpayable",
      "type": "function"
    },
    {
      "inputs": [
        {
          "internalType": "uint256",
          "name": "_amount",
          "type": "uint256"
        }
      ],
      "name": "fundUSDC",
      "outputs": [],
      "stateMutability": "nonpayable",
      "type": "function"
    },
    {
      "inputs": [
        {
          "internalType": "address",
          "name": "spender",
          "type": "address"
        },
        {
          "internalType": "uint256",
          "name": "addedValue",
          "type": "uint256"
        }
      ],
      "name": "increaseAllowance",
      "outputs": [
        {
          "internalType": "bool",
          "name": "",
          "type": "bool"
        }
      ],
      "stateMutability": "nonpayable",
      "type": "function"
    },
    {
      "inputs": [
        {
          "internalType": "string",
          "name": "_detailsHash",
          "type": "string"
        },
        {
          "internalType": "uint256",
          "name": "_cost",
          "type": "uint256"
        }
      ],
      "name": "logTransaction",
      "outputs": [],
      "stateMutability": "nonpayable",
      "type": "function"
    },
    {
      "inputs": [
        {
          "internalType": "address",
          "name": "to",
          "type": "address"
        },
        {
          "internalType": "uint256",
          "name": "amount",
          "type": "uint256"
        }
      ],
      "name": "mint",
      "outputs": [],
      "stateMutability": "nonpayable",
      "type": "function"
    },
    {
      "inputs": [],
      "name": "name",
      "outputs": [
        {
          "internalType": "string",
          "name": "",
          "type": "string"
        }
      ],
      "stateMutability": "view",
      "type": "function"
    },
    {
      "inputs": [],
      "name": "owner",
      "outputs": [
        {
          "internalType": "address",
          "name": "",
          "type": "address"
        }
      ],
      "stateMutability": "view",
      "type": "function"
    },
    {
      "inputs": [],
      "name": "renounceOwnership",
      "outputs": [],
      "stateMutability": "nonpayable",
      "type": "function"
    },
    {
      "inputs": [],
      "name": "symbol",
      "outputs": [
        {
          "internalType": "string",
          "name": "",
          "type": "string"
        }
      ],
      "stateMutability": "view",
      "type": "function"
    },
    {
      "inputs": [],
      "name": "totalExpensed",
      "outputs": [
        {
          "internalType": "uint256",
          "name": "",
          "type": "uint256"
        }
      ],
      "stateMutability": "view",
      "type": "function"
    },
    {
      "inputs": [],
      "name": "totalSupply",
      "outputs": [
        {
          "internalType": "uint256",
          "name": "",
          "type": "uint256"
        }
      ],
      "stateMutability": "view",
      "type": "function"
    },
    {
      "inputs": [
        {
          "internalType": "uint256",
          "name": "",
          "type": "uint256"
        }
      ],
      "name": "transactions",
      "outputs": [
        {
          "internalType": "string",
          "name": "detailsHash",
          "type": "string"
        },
        {
          "internalType": "uint256",
          "name": "cost",
          "type": "uint256"
        },
        {
          "internalType": "enum SimpliSpend.TransactionStatus",
          "name": "status",
          "type": "uint8"
        },
        {
          "internalType": "address",
          "name": "user",
          "type": "address"
        }
      ],
      "stateMutability": "view",
      "type": "function"
    },
    {
      "inputs": [
        {
          "internalType": "address",
          "name": "to",
          "type": "address"
        },
        {
          "internalType": "uint256",
          "name": "amount",
          "type": "uint256"
        }
      ],
      "name": "transfer",
      "outputs": [
        {
          "internalType": "bool",
          "name": "",
          "type": "bool"
        }
      ],
      "stateMutability": "nonpayable",
      "type": "function"
    },
    {
      "inputs": [
        {
          "internalType": "address",
          "name": "from",
          "type": "address"
        },
        {
          "internalType": "address",
          "name": "to",
          "type": "address"
        },
        {
          "internalType": "uint256",
          "name": "amount",
          "type": "uint256"
        }
      ],
      "name": "transferFrom",
      "outputs": [
        {
          "internalType": "bool",
          "name": "",
          "type": "bool"
        }
      ],
      "stateMutability": "nonpayable",
      "type": "function"
    },
    {
      "inputs": [
        {
          "internalType": "address",
          "name": "newOwner",
          "type": "address"
        }
      ],
      "name": "transferOwnership",
      "outputs": [],
      "stateMutability": "nonpayable",
      "type": "function"
    },
    {
      "inputs": [],
      "name": "usdc",
      "outputs": [
        {
          "internalType": "contract IERC20",
          "name": "",
          "type": "address"
        }
      ],
      "stateMutability": "view",
      "type": "function"
    }
  ],
  "bytecode": "0x60806040523480156200001157600080fd5b506040516200330938038062003309833981810160405281019062000037919062000327565b6040518060400160405280600b81526020017f53696d706c695370656e640000000000000000000000000000000000000000008152506040518060400160405280600481526020017f53494d50000000000000000000000000000000000000000000000000000000008152508160039080519060200190620000bb9291906200020d565b508060049080519060200190620000d49291906200020d565b505050620000f7620000eb6200013f60201b60201c565b6200014760201b60201c565b80600660006101000a81548173ffffffffffffffffffffffffffffffffffffffff021916908373ffffffffffffffffffffffffffffffffffffffff16021790555050620003be565b600033905090565b6000600560009054906101000a900473ffffffffffffffffffffffffffffffffffffffff16905081600560006101000a81548173ffffffffffffffffffffffffffffffffffffffff021916908373ffffffffffffffffffffffffffffffffffffffff1602179055508173ffffffffffffffffffffffffffffffffffffffff168173ffffffffffffffffffffffffffffffffffffffff167f8be0079c531659141344cd1fd0a4f28419497f9722a3daafe3b4186f6b6457e060405160405180910390a35050565b8280546200021b9062000388565b90600052602060002090601f0160209004810192826200023f57600085556200028b565b82601f106200025a57805160ff19168380011785556200028b565b828001600101855582156200028b579182015b828111156200028a5782518255916020019190600101906200026d565b5b5090506200029a91906200029e565b5090565b5b80821115620002b95760008160009055506001016200029f565b5090565b600080fd5b600073ffffffffffffffffffffffffffffffffffffffff82169050919050565b6000620002ef82620002c2565b9050919050565b6200030181620002e2565b81146200030d57600080fd5b50565b6000815190506200032181620002f6565b92915050565b60006020828403121562000340576200033f620002bd565b5b6000620003508482850162000310565b91505092915050565b7f4e487b7100000000000000000000000000000000000000000000000000000000600052602260045260246000fd5b60006002820490506001821680620003a157607f821691505b60208210811415620003b857620003b762000359565b5b50919050565b612f3b80620003ce6000396000f3fe608060405234801561001057600080fd5b50600436106101735760003560e01c8063715018a6116100de5780639ace38c211610097578063ae94882011610071578063ae9488201461044d578063c8e0e80414610469578063dd62ed3e14610487578063f2fde38b146104b757610173565b80639ace38c2146103ba578063a457c2d7146103ed578063a9059cbb1461041d57610173565b8063715018a61461032057806371a1c5d81461032a57806379cc6790146103465780638368074c146103625780638da5cb5b1461037e57806395d89b411461039c57610173565b80633950935111610130578063395093511461024e5780633e413bee1461027e57806340c10f191461029c57806342966c68146102b857806347c63733146102d457806370a08231146102f057610173565b806306fdde0314610178578063095ea7b31461019657806318160ddd146101c657806323b872dd146101e4578063242232d114610214578063313ce56714610230575b600080fd5b6101806104d3565b60405161018d9190611d6b565b60405180910390f35b6101b060048036038101906101ab9190611e35565b610565565b6040516101bd9190611e90565b60405180910390f35b6101ce610588565b6040516101db9190611eba565b60405180910390f35b6101fe60048036038101906101f99190611ed5565b610592565b60405161020b9190611e90565b60405180910390f35b61022e60048036038101906102299190611f28565b6105c1565b005b6102386106ca565b6040516102459190611f71565b60405180910390f35b61026860048036038101906102639190611e35565b6106d3565b6040516102759190611e90565b60405180910390f35b61028661070a565b6040516102939190611feb565b60405180910390f35b6102b660048036038101906102b19190611e35565b610730565b005b6102d260048036038101906102cd9190611f28565b610746565b005b6102ee60048036038101906102e99190611f28565b61075a565b005b61030a60048036038101906103059190612006565b6107ce565b6040516103179190611eba565b60405180910390f35b610328610816565b005b610344600480360381019061033f9190611f28565b61082a565b005b610360600480360381019061035b9190611e35565b610901565b005b61037c60048036038101906103779190611f28565b610921565b005b610386610aaf565b6040516103939190612042565b60405180910390f35b6103a4610ad9565b6040516103b19190611d6b565b60405180910390f35b6103d460048036038101906103cf9190611f28565b610b6b565b6040516103e494939291906120d4565b60405180910390f35b61040760048036038101906104029190611e35565b610c60565b6040516104149190611e90565b60405180910390f35b61043760048036038101906104329190611e35565b610cd7565b6040516104449190611e90565b60405180910390f35b61046760048036038101906104629190612255565b610cfa565b005b610471610e13565b60405161047e9190611eba565b60405180910390f35b6104a1600480360381019061049c91906122b1565b610e19565b6040516104ae9190611eba565b60405180910390f35b6104d160048036038101906104cc9190612006565b610ea0565b005b6060600380546104e290612320565b80601f016020809104026020016040519081016040528092919081815260200182805461050e90612320565b801561055b5780601f106105305761010080835404028352916020019161055b565b820191906000526020600020905b81548152906001019060200180831161053e57829003601f168201915b5050505050905090565b600080610570610f24565b905061057d818585610f2c565b600191505092915050565b6000600254905090565b60008061059d610f24565b90506105aa8582856110f7565b6105b5858585611183565b60019150509392505050565b6105c96113fb565b6000600882815481106105df576105de612352565b5b90600052602060002090600302019050600060028111156106035761060261205d565b5b8160020160009054906101000a900460ff1660028111156106275761062661205d565b5b14610667576040517f08c379a000000000000000000000000000000000000000000000000000000000815260040161065e906123cd565b60405180910390fd5b60018160020160006101000a81548160ff0219169083600281111561068f5761068e61205d565b5b02179055506106c68160020160019054906101000a900473ffffffffffffffffffffffffffffffffffffffff168260010154611479565b5050565b60006012905090565b6000806106de610f24565b90506106ff8185856106f08589610e19565b6106fa919061241c565b610f2c565b600191505092915050565b600660009054906101000a900473ffffffffffffffffffffffffffffffffffffffff1681565b6107386113fb565b6107428282611479565b5050565b610757610751610f24565b82611487565b50565b6000811161079d576040517f08c379a0000000000000000000000000000000000000000000000000000000008152600401610794906124be565b60405180910390fd5b6107cb600660009054906101000a900473ffffffffffffffffffffffffffffffffffffffff16333084611495565b50565b60008060008373ffffffffffffffffffffffffffffffffffffffff1673ffffffffffffffffffffffffffffffffffffffff168152602001908152602001600020549050919050565b61081e6113fb565b610828600061151e565b565b6108326113fb565b60006008828154811061084857610847612352565b5b906000526020600020906003020190506000600281111561086c5761086b61205d565b5b8160020160009054906101000a900460ff1660028111156108905761088f61205d565b5b146108d0576040517f08c379a00000000000000000000000000000000000000000000000000000000081526004016108c7906123cd565b60405180910390fd5b60028160020160006101000a81548160ff021916908360028111156108f8576108f761205d565b5b02179055505050565b6109138261090d610f24565b836110f7565b61091d8282611487565b5050565b60008111610964576040517f08c379a000000000000000000000000000000000000000000000000000000000815260040161095b9061252a565b60405180910390fd5b80600660009054906101000a900473ffffffffffffffffffffffffffffffffffffffff1673ffffffffffffffffffffffffffffffffffffffff166370a08231306040518263ffffffff1660e01b81526004016109c09190612042565b60206040518083038186803b1580156109d857600080fd5b505afa1580156109ec573d6000803e3d6000fd5b505050506040513d601f19601f82011682018060405250810190610a10919061255f565b1015610a51576040517f08c379a0000000000000000000000000000000000000000000000000000000008152600401610a48906125d8565b60405180910390fd5b610a7e600660009054906101000a900473ffffffffffffffffffffffffffffffffffffffff1633836115e4565b610a89333083611183565b610a933082611487565b8060076000828254610aa5919061241c565b9250508190555050565b6000600560009054906101000a900473ffffffffffffffffffffffffffffffffffffffff16905090565b606060048054610ae890612320565b80601f0160208091040260200160405190810160405280929190818152602001828054610b1490612320565b8015610b615780601f10610b3657610100808354040283529160200191610b61565b820191906000526020600020905b815481529060010190602001808311610b4457829003601f168201915b5050505050905090565b60088181548110610b7b57600080fd5b9060005260206000209060030201600091509050806000018054610b9e90612320565b80601f0160208091040260200160405190810160405280929190818152602001828054610bca90612320565b8015610c175780601f10610bec57610100808354040283529160200191610c17565b820191906000526020600020905b815481529060010190602001808311610bfa57829003601f168201915b5050505050908060010154908060020160009054906101000a900460ff16908060020160019054906101000a900473ffffffffffffffffffffffffffffffffffffffff16905084565b600080610c6b610f24565b90506000610c798286610e19565b905083811015610cbe576040517f08c379a0000000000000000000000000000000000000000000000000000000008152600401610cb59061266a565b60405180910390fd5b610ccb8286868403610f2c565b60019250505092915050565b600080610ce2610f24565b9050610cef818585611183565b600191505092915050565b6008604051806080016040528084815260200183815260200160006002811115610d2757610d2661205d565b5b81526020013373ffffffffffffffffffffffffffffffffffffffff1681525090806001815401808255809150506001900390600052602060002090600302016000909190919091506000820151816000019080519060200190610d8b929190611c2f565b506020820151816001015560408201518160020160006101000a81548160ff02191690836002811115610dc157610dc061205d565b5b021790555060608201518160020160016101000a81548173ffffffffffffffffffffffffffffffffffffffff021916908373ffffffffffffffffffffffffffffffffffffffff16021790555050505050565b60075481565b6000600160008473ffffffffffffffffffffffffffffffffffffffff1673ffffffffffffffffffffffffffffffffffffffff16815260200190815260200160002060008373ffffffffffffffffffffffffffffffffffffffff1673ffffffffffffffffffffffffffffffffffffffff16815260200190815260200160002054905092915050565b610ea86113fb565b600073ffffffffffffffffffffffffffffffffffffffff168173ffffffffffffffffffffffffffffffffffffffff161415610f18576040517f08c379a0000000000000000000000000000000000000000000000000000000008152600401610f0f906126fc565b60405180910390fd5b610f218161151e565b50565b600033905090565b600073ffffffffffffffffffffffffffffffffffffffff168373ffffffffffffffffffffffffffffffffffffffff161415610f9c576040517f08c379a0000000000000000000000000000000000000000000000000000000008152600401610f939061278e565b60405180910390fd5b600073ffffffffffffffffffffffffffffffffffffffff168273ffffffffffffffffffffffffffffffffffffffff16141561100c576040517f08c379a000000000000000000000000000000000000000000000000000000000815260040161100390612820565b60405180910390fd5b80600160008573ffffffffffffffffffffffffffffffffffffffff1673ffffffffffffffffffffffffffffffffffffffff16815260200190815260200160002060008473ffffffffffffffffffffffffffffffffffffffff1673ffffffffffffffffffffffffffffffffffffffff168152602001908152602001600020819055508173ffffffffffffffffffffffffffffffffffffffff168373ffffffffffffffffffffffffffffffffffffffff167f8c5be1e5ebec7d5bd14f71427d1e84f3dd0314c0f7b2291e5b200ac8c7c3b925836040516110ea9190611eba565b60405180910390a3505050565b60006111038484610e19565b90507fffffffffffffffffffffffffffffffffffffffffffffffffffffffffffffffff811461117d578181101561116f576040517f08c379a00000000000000000000000000000000000000000000000000000000081526004016111669061288c565b60405180910390fd5b61117c8484848403610f2c565b5b50505050565b600073ffffffffffffffffffffffffffffffffffffffff168373ffffffffffffffffffffffffffffffffffffffff1614156111f3576040517f08c379a00000000000000000000000000000000000000000000000000000000081526004016111ea9061291e565b60405180910390fd5b600073ffffffffffffffffffffffffffffffffffffffff168273ffffffffffffffffffffffffffffffffffffffff161415611263576040517f08c379a000000000000000000000000000000000000000000000000000000000815260040161125a906129b0565b60405180910390fd5b61126e83838361166a565b60008060008573ffffffffffffffffffffffffffffffffffffffff1673ffffffffffffffffffffffffffffffffffffffff168152602001908152602001600020549050818110156112f4576040517f08c379a00000000000000000000000000000000000000000000000000000000081526004016112eb90612a42565b60405180910390fd5b8181036000808673ffffffffffffffffffffffffffffffffffffffff1673ffffffffffffffffffffffffffffffffffffffff16815260200190815260200160002081905550816000808573ffffffffffffffffffffffffffffffffffffffff1673ffffffffffffffffffffffffffffffffffffffff168152602001908152602001600020600082825401925050819055508273ffffffffffffffffffffffffffffffffffffffff168473ffffffffffffffffffffffffffffffffffffffff167fddf252ad1be2c89b69c2b068fc378daa952ba7f163c4a11628f55a4df523b3ef846040516113e29190611eba565b60405180910390a36113f584848461166f565b50505050565b611403610f24565b73ffffffffffffffffffffffffffffffffffffffff16611421610aaf565b73ffffffffffffffffffffffffffffffffffffffff1614611477576040517f08c379a000000000000000000000000000000000000000000000000000000000815260040161146e90612aae565b60405180910390fd5b565b6114838282611674565b5050565b61149182826117cb565b5050565b611518846323b872dd60e01b8585856040516024016114b693929190612ace565b604051602081830303815290604052907bffffffffffffffffffffffffffffffffffffffffffffffffffffffff19166020820180517bffffffffffffffffffffffffffffffffffffffffffffffffffffffff8381831617835250505050611999565b50505050565b6000600560009054906101000a900473ffffffffffffffffffffffffffffffffffffffff16905081600560006101000a81548173ffffffffffffffffffffffffffffffffffffffff021916908373ffffffffffffffffffffffffffffffffffffffff1602179055508173ffffffffffffffffffffffffffffffffffffffff168173ffffffffffffffffffffffffffffffffffffffff167f8be0079c531659141344cd1fd0a4f28419497f9722a3daafe3b4186f6b6457e060405160405180910390a35050565b6116658363a9059cbb60e01b8484604051602401611603929190612b05565b604051602081830303815290604052907bffffffffffffffffffffffffffffffffffffffffffffffffffffffff19166020820180517bffffffffffffffffffffffffffffffffffffffffffffffffffffffff8381831617835250505050611999565b505050565b505050565b505050565b600073ffffffffffffffffffffffffffffffffffffffff168273ffffffffffffffffffffffffffffffffffffffff1614156116e4576040517f08c379a00000000000000000000000000000000000000000000000000000000081526004016116db90612b7a565b60405180910390fd5b6116f06000838361166a565b8060026000828254611702919061241c565b92505081905550806000808473ffffffffffffffffffffffffffffffffffffffff1673ffffffffffffffffffffffffffffffffffffffff168152602001908152602001600020600082825401925050819055508173ffffffffffffffffffffffffffffffffffffffff16600073ffffffffffffffffffffffffffffffffffffffff167fddf252ad1be2c89b69c2b068fc378daa952ba7f163c4a11628f55a4df523b3ef836040516117b39190611eba565b60405180910390a36117c76000838361166f565b5050565b600073ffffffffffffffffffffffffffffffffffffffff168273ffffffffffffffffffffffffffffffffffffffff16141561183b576040517f08c379a000000000000000000000000000000000000000000000000000000000815260040161183290612c0c565b60405180910390fd5b6118478260008361166a565b60008060008473ffffffffffffffffffffffffffffffffffffffff1673ffffffffffffffffffffffffffffffffffffffff168152602001908152602001600020549050818110156118cd576040517f08c379a00000000000000000000000000000000000000000000000000000000081526004016118c490612c9e565b60405180910390fd5b8181036000808573ffffffffffffffffffffffffffffffffffffffff1673ffffffffffffffffffffffffffffffffffffffff1681526020019081526020016000208190555081600260008282540392505081905550600073ffffffffffffffffffffffffffffffffffffffff168373ffffffffffffffffffffffffffffffffffffffff167fddf252ad1be2c89b69c2b068fc378daa952ba7f163c4a11628f55a4df523b3ef846040516119809190611eba565b60405180910390a36119948360008461166f565b505050565b60006119fb826040518060400160405280602081526020017f5361666545524332303a206c6f772d6c6576656c2063616c6c206661696c65648152508573ffffffffffffffffffffffffffffffffffffffff16611a619092919063ffffffff16565b9050600081511480611a1d575080806020019051810190611a1c9190612cea565b5b611a5c576040517f08c379a0000000000000000000000000000000000000000000000000000000008152600401611a5390612d89565b60405180910390fd5b505050565b6060611a708484600085611a79565b90509392505050565b606082471015611abe576040517f08c379a0000000000000000000000000000000000000000000000000000000008152600401611ab590612e1b565b60405180910390fd5b6000808673ffffffffffffffffffffffffffffffffffffffff168587604051611ae79190612e82565b60006040518083038185875af1925050503d8060008114611b24576040519150601f19603f3d011682016040523d82523d6000602084013e611b29565b606091505b5091509150611b3a87838387611b46565b92505050949350505050565b60608315611ba957600083511415611ba157611b6185611bbc565b611ba0576040517f08c379a0000000000000000000000000000000000000000000000000000000008152600401611b9790612ee5565b60405180910390fd5b5b829050611bb4565b611bb38383611bdf565b5b949350505050565b6000808273ffffffffffffffffffffffffffffffffffffffff163b119050919050565b600082511115611bf25781518083602001fd5b806040517f08c379a0000000000000000000000000000000000000000000000000000000008152600401611c269190611d6b565b60405180910390fd5b828054611c3b90612320565b90600052602060002090601f016020900481019282611c5d5760008555611ca4565b82601f10611c7657805160ff1916838001178555611ca4565b82800160010185558215611ca4579182015b82811115611ca3578251825591602001919060010190611c88565b5b509050611cb19190611cb5565b5090565b5b80821115611cce576000816000905550600101611cb6565b5090565b600081519050919050565b600082825260208201905092915050565b60005b83811015611d0c578082015181840152602081019050611cf1565b83811115611d1b576000848401525b50505050565b6000601f19601f8301169050919050565b6000611d3d82611cd2565b611d478185611cdd565b9350611d57818560208601611cee565b611d6081611d21565b840191505092915050565b60006020820190508181036000830152611d858184611d32565b905092915050565b6000604051905090565b600080fd5b600080fd5b600073ffffffffffffffffffffffffffffffffffffffff82169050919050565b6000611dcc82611da1565b9050919050565b611ddc81611dc1565b8114611de757600080fd5b50565b600081359050611df981611dd3565b92915050565b6000819050919050565b611e1281611dff565b8114611e1d57600080fd5b50565b600081359050611e2f81611e09565b92915050565b60008060408385031215611e4c57611e4b611d97565b5b6000611e5a85828601611dea565b9250506020611e6b85828601611e20565b9150509250929050565b60008115159050919050565b611e8a81611e75565b82525050565b6000602082019050611ea56000830184611e81565b92915050565b611eb481611dff565b82525050565b6000602082019050611ecf6000830184611eab565b92915050565b600080600060608486031215611eee57611eed611d97565b5b6000611efc86828701611dea565b9350506020611f0d86828701611dea565b9250506040611f1e86828701611e20565b9150509250925092565b600060208284031215611f3e57611f3d611d97565b5b6000611f4c84828501611e20565b91505092915050565b600060ff82169050919050565b611f6b81611f55565b82525050565b6000602082019050611f866000830184611f62565b92915050565b6000819050919050565b6000611fb1611fac611fa784611da1565b611f8c565b611da1565b9050919050565b6000611fc382611f96565b9050919050565b6000611fd582611fb8565b9050919050565b611fe581611fca565b82525050565b60006020820190506120006000830184611fdc565b92915050565b60006020828403121561201c5761201b611d97565b5b600061202a84828501611dea565b91505092915050565b61203c81611dc1565b82525050565b60006020820190506120576000830184612033565b92915050565b7f4e487b7100000000000000000000000000000000000000000000000000000000600052602160045260246000fd5b6003811061209d5761209c61205d565b5b50565b60008190506120ae8261208c565b919050565b60006120be826120a0565b9050919050565b6120ce816120b3565b82525050565b600060808201905081810360008301526120ee8187611d32565b90506120fd6020830186611eab565b61210a60408301856120c5565b6121176060830184612033565b95945050505050565b600080fd5b600080fd5b7f4e487b7100000000000000000000000000000000000000000000000000000000600052604160045260246000fd5b61216282611d21565b810181811067ffffffffffffffff821117156121815761218061212a565b5b80604052505050565b6000612194611d8d565b90506121a08282612159565b919050565b600067ffffffffffffffff8211156121c0576121bf61212a565b5b6121c982611d21565b9050602081019050919050565b82818337600083830152505050565b60006121f86121f3846121a5565b61218a565b90508281526020810184848401111561221457612213612125565b5b61221f8482856121d6565b509392505050565b600082601f83011261223c5761223b612120565b5b813561224c8482602086016121e5565b91505092915050565b6000806040838503121561226c5761226b611d97565b5b600083013567ffffffffffffffff81111561228a57612289611d9c565b5b61229685828601612227565b92505060206122a785828601611e20565b9150509250929050565b600080604083850312156122c8576122c7611d97565b5b60006122d685828601611dea565b92505060206122e785828601611dea565b9150509250929050565b7f4e487b7100000000000000000000000000000000000000000000000000000000600052602260045260246000fd5b6000600282049050600182168061233857607f821691505b6020821081141561234c5761234b6122f1565b5b50919050565b7f4e487b7100000000000000000000000000000000000000000000000000000000600052603260045260246000fd5b7f5472616e73616374696f6e206973206e6f742050656e64696e67000000000000600082015250565b60006123b7601a83611cdd565b91506123c282612381565b602082019050919050565b600060208201905081810360008301526123e6816123aa565b9050919050565b7f4e487b7100000000000000000000000000000000000000000000000000000000600052601160045260246000fd5b600061242782611dff565b915061243283611dff565b9250827fffffffffffffffffffffffffffffffffffffffffffffffffffffffffffffffff03821115612467576124666123ed565b5b828201905092915050565b7f6465706f73697420616d6f756e742073686f756c64206265203e203000000000600082015250565b60006124a8601c83611cdd565b91506124b382612472565b602082019050919050565b600060208201905081810360008301526124d78161249b565b9050919050565b7f65786368616e676520616d6f756e742073686f756c64206265203e2030000000600082015250565b6000612514601d83611cdd565b915061251f826124de565b602082019050919050565b6000602082019050818103600083015261254381612507565b9050919050565b60008151905061255981611e09565b92915050565b60006020828403121561257557612574611d97565b5b60006125838482850161254a565b91505092915050565b7f4e6f7420656e6f756768205553444320696e20636f6e74726163740000000000600082015250565b60006125c2601b83611cdd565b91506125cd8261258c565b602082019050919050565b600060208201905081810360008301526125f1816125b5565b9050919050565b7f45524332303a2064656372656173656420616c6c6f77616e63652062656c6f7760008201527f207a65726f000000000000000000000000000000000000000000000000000000602082015250565b6000612654602583611cdd565b915061265f826125f8565b604082019050919050565b6000602082019050818103600083015261268381612647565b9050919050565b7f4f776e61626c653a206e6577206f776e657220697320746865207a65726f206160008201527f6464726573730000000000000000000000000000000000000000000000000000602082015250565b60006126e6602683611cdd565b91506126f18261268a565b604082019050919050565b60006020820190508181036000830152612715816126d9565b9050919050565b7f45524332303a20617070726f76652066726f6d20746865207a65726f2061646460008201527f7265737300000000000000000000000000000000000000000000000000000000602082015250565b6000612778602483611cdd565b91506127838261271c565b604082019050919050565b600060208201905081810360008301526127a78161276b565b9050919050565b7f45524332303a20617070726f766520746f20746865207a65726f20616464726560008201527f7373000000000000000000000000000000000000000000000000000000000000602082015250565b600061280a602283611cdd565b9150612815826127ae565b604082019050919050565b60006020820190508181036000830152612839816127fd565b9050919050565b7f45524332303a20696e73756666696369656e7420616c6c6f77616e6365000000600082015250565b6000612876601d83611cdd565b915061288182612840565b602082019050919050565b600060208201905081810360008301526128a581612869565b9050919050565b7f45524332303a207472616e736665722066726f6d20746865207a65726f20616460008201527f6472657373000000000000000000000000000000000000000000000000000000602082015250565b6000612908602583611cdd565b9150612913826128ac565b604082019050919050565b60006020820190508181036000830152612937816128fb565b9050919050565b7f45524332303a207472616e7366657220746f20746865207a65726f206164647260008201527f6573730000000000000000000000000000000000000000000000000000000000602082015250565b600061299a602383611cdd565b91506129a58261293e565b604082019050919050565b600060208201905081810360008301526129c98161298d565b9050919050565b7f45524332303a207472616e7366657220616d6f756e742065786365656473206260008201527f616c616e63650000000000000000000000000000000000000000000000000000602082015250565b6000612a2c602683611cdd565b9150612a37826129d0565b604082019050919050565b60006020820190508181036000830152612a5b81612a1f565b9050919050565b7f4f776e61626c653a2063616c6c6572206973206e6f7420746865206f776e6572600082015250565b6000612a98602083611cdd565b9150612aa382612a62565b602082019050919050565b60006020820190508181036000830152612ac781612a8b565b9050919050565b6000606082019050612ae36000830186612033565b612af06020830185612033565b612afd6040830184611eab565b949350505050565b6000604082019050612b1a6000830185612033565b612b276020830184611eab565b9392505050565b7f45524332303a206d696e7420746f20746865207a65726f206164647265737300600082015250565b6000612b64601f83611cdd565b9150612b6f82612b2e565b602082019050919050565b60006020820190508181036000830152612b9381612b57565b9050919050565b7f45524332303a206275726e2066726f6d20746865207a65726f2061646472657360008201527f7300000000000000000000000000000000000000000000000000000000000000602082015250565b6000612bf6602183611cdd565b9150612c0182612b9a565b604082019050919050565b60006020820190508181036000830152612c2581612be9565b9050919050565b7f45524332303a206275726e20616d6f756e7420657863656564732062616c616e60008201527f6365000000000000000000000000000000000000000000000000000000000000602082015250565b6000612c88602283611cdd565b9150612c9382612c2c565b604082019050919050565b60006020820190508181036000830152612cb781612c7b565b9050919050565b612cc781611e75565b8114612cd257600080fd5b50565b600081519050612ce481612cbe565b92915050565b600060208284031215612d0057612cff611d97565b5b6000612d0e84828501612cd5565b91505092915050565b7f5361666545524332303a204552433230206f7065726174696f6e20646964206e60008201527f6f74207375636365656400000000000000000000000000000000000000000000602082015250565b6000612d73602a83611cdd565b9150612d7e82612d17565b604082019050919050565b60006020820190508181036000830152612da281612d66565b9050919050565b7f416464726573733a20696e73756666696369656e742062616c616e636520666f60008201527f722063616c6c0000000000000000000000000000000000000000000000000000602082015250565b6000612e05602683611cdd565b9150612e1082612da9565b604082019050919050565b60006020820190508181036000830152612e3481612df8565b9050919050565b600081519050919050565b600081905092915050565b6000612e5c82612e3b565b612e668185612e46565b9350612e76818560208601611cee565b80840191505092915050565b6000612e8e8284612e51565b915081905092915050565b7f416464726573733a2063616c6c20746f206e6f6e2d636f6e7472616374000000600082015250565b6000612ecf601d83611cdd565b9150612eda82612e99565b602082019050919050565b60006020820190508181036000830152612efe81612ec2565b905091905056fea2646970667358221220896882bba680da6ba7783d5f22d0f99645a1ec3e70ed740a56efc780c80c434c64736f6c63430008090033",
  "linkReferences": {},
  "deployedLinkReferences": {}
}